:03000000020F0FDD
:0C0F0F00787FE4F6D8FD758149020800E7
:100D5B002D2D42727573686C657373204553432058
:100D6B00546573742D2D0D0A0074696D656F757460
:100D7B000D0A002D53542D0D0A002D636D70206943
:100D8B00742D0D0A0070683A000D0A002D74342082
:100D9B00697420312D0D0A002D74342069742032B2
:040DAB002D0D0A0000
:0F0EF2007D607C09ED1D70011C144C70F7DFF161
:010F010022CD
:100E7D000000000000000000000000000000000065
:070E8D0000000000DFEA2273
:03002300020DE2E9
:100DE200C0E0C0D075D000C000C007309904C299DD
:100DF200C205309814C298AF280528743A2FF8A675
:100E020099E599B40A03432880D007D000D0D0D006
:020E1200E032CC
:050E1400E52830E72590
:100E1900547FF5177B007A00793A120E3FE4F518F2
:100E2900E518C39517500B743A2518F8E4F6051818
:050E390080EEE4F52845
:010E3E002291
:1008000043BA80120E94120B97120E64120F02124A
:100810000ED0120EAA120EE1120EBED2AC752164D9
:10082000E4F522D2AF7BFF7A0D795B120E3F3002E6
:10083000FDC202E52260341522E522702E7BFF7A8C
:100840000D7974120E3FC206E4F52975E68C90FE10
:10085000B1F090FED5F0A3F0A3F0A3F0A3F0A3F0C5
:10086000C291C293C2957FFA120EF2200657C3E5D9
:1008700021941E74809480404C7BFF7A0D797E1207
:100880000E3FD204E4FFEFC3940874809480500EAE
:10089000EF25E0242AF876010876900F80E8120C04
:1008A00035C204E4F52553E6BFE52730E00575E6DB
:1008B000AC800375E69CD2067FFA120EF27FFA1224
:1008C0000EF275227D30062AE529C39521500205D6
:1008D00029E529D3952140021529AF297E0090FEF4
:1008E000D5EEF0A3EFF0A3EEF0A3EFF0A3EEF0A3AC
:1008F000EFF0300724C2077BFF7A0D7985120E3F97
:100900007BFF7A0D7990120E3FAF24AE23120D04B7
:100910007BFF7A0D7994120E3F30000BC2007BFFF3
:100920007A0D7997120E3F20010302082EC2017B37
:0B093000FF7A0D79A3120E3F02082E83
:100E9400E4F594F593F592F591F596F595F5B2F59B
:060EA400B1F5CAF5CA22F7
:100B9700C290C291C292C293C294C29543923F53EC
:100BA70091C090FED0E4F0A37403F090FEDE7418B9
:100BB700F090FED2E4F0A374FFF090FECCE4F0A333
:100BC700F090FEC5F0A3F090FEB1F0A3F090FEC444
:100BD700F090FEC87468F090FED5E4F0A3F090FEA4
:100BE700CCE04401F090FEB2E0F090FEC97468F0EA
:100BF70090FED7E4F0A3F090FECCE04410F090FE16
:100C0700B2E0F090FECA7468F090FED9E4F0A3F069
:100C170090FECDE04401F090FEB2E0F090FEDD746E
:0E0C270080F090FEC004F090FEC77401F02231
:100E64004391C053923F43930F5394F075BC8675DE
:090E7400DE2190FEA87434F02286
:0D0F020043B14053B2BF75E68C75E73C2249
:100ED0005389FC538E7F758CE0758AC0D28CD2A961
:010EE00022EF
:100EAA0053D1F0E4F5D4F5D590FEAC04F043AF206D
:040EBA0043D10822F6
:100EE10053D10FE4F5D2F5D390FEAC04F043AF40FB
:010EF10022DE
:100DAF007EFFE4F5BDF5BEEF44C0F5BC00EE600775
:100DBF001EE5BC542060F653BCDFAFBEEF2408FF26
:100DCF00AEBDEE7E00A807088005CEC313CE13D8A4
:020DDF00F9FF1A
:010DE10022EF
:100C350075E68C75291E90FED6E529F090FED8F054
:100C450090FEDAF0E4F527120A337F32120EF275C0
:100C55000A00750BC8E4FDFCC3ED950BEC950A5035
:100C65000C7F64120E7D0DBD00010C80EBE50AC4FE
:100C7500F854F0C868FEE50BC4540F48FFC3E50BF4
:100C85009FF50BE50A9EF50A0527C3E5279406742B
:100C95008094804003E4F527120A33C3E50B9428BA
:060CA500E50A940050AFC7
:010CAB002226
:100A3300E52714602F14604614605F146076147009
:100A430003020AD524056003020AF290FEB1E4F022
:100A5300C291C2950000000004F0D29375BC8A30A5
:100A63000650806890FEB17401F0C291C2930000F9
:100A73000000D29575BC89300602806C806E90FEB2
:100A8300B1E4F0C291C293000000007404F0D29567
:100A930075BC883006028034805290FEB17404F035
:100AA300C293C29500000000D29175BC8A30060241
:100AB3008036803890FEB1E4F0C293C29500000006
:100AC300007410F0D29175BC8930060475E69C223F
:100AD300801A90FEB17410F0C291C295000000001C
:100AE300D29375BC8830060475E6AC2275E68C2279
:100EBE0075985075D7CC75D6FF758E15E4F528C28A
:020ECE000522FB
:080F1B002005FDD2058F99228B
:100E3F008B148A158916AB14AA15A916120AF3601A
:100E4F00130516E5167002051514F9120AF3FF12B1
:050E5F000F1B80E222E0
:040D04008E0A8F0BB9
:100D0800E4FBC3E50A6480948050107F2D120F1B0A
:100D1800C3E4950BF50BE4950AF50AE50B450A6063
:100D280029AE0AAF0B7C007D0A120B0CAA05EA2437
:100D380030FF740C2BF8A607AE0AAF0B7C007D0AB7
:100D4800120B0C8E0A8F0B0B80D17B007A00790C6A
:030D5800020E3F49
:0300AB0002093B0C
:10093B00C0E0C0F0C0D075D000C000C002C004C081
:05094B0005C006C00715
:10095000E5E675F0BF8485F0E6E5256003020A2030
:1009600053D1F7300308C2037C1F7DFF8013AFD43F
:10097000EFFEADD57C00E42DFFEC3EC313FCEF137E
:10098000FD75D40075D50043D108E52625E0242A5D
:10099000F8A60408A6050526C3E5269408748094E5
:1009A0008040037526007C007D00E4FFEFC39408BF
:1009B000748094805012EF25E0242AF8E6FA08E6C5
:1009C0002DFDEA3CFC0F80E4ECC4F854F0C868FC50
:1009D000EDC4540F48FD8C23F524D39428EC9400E7
:1009E000400DED94E8EC94035005D20775227DD3B9
:1009F000ED9428EC9400400A74D82DFD74FF3CFC63
:100A000080047C007D1453D17FED25E0FDEC33FCA8
:100A1000C3E49DFDE49CF5D28DD343D180752501BF
:100A2000D007D006D005D004D002D000D0D0D0F06E
:030A3000D0E032E1
:03000B00020F23BE
:030F2300D20232C5
:03009B00020F262B
:030F2600D20332C1
:0300A300020CACA0
:100CAC00C0E0C083C082C0D075D000C006C007535E
:100CBC00D17FAF257E00EF640170267525023006CA
:100CCC0015D2000527C3E527940674809480400351
:100CDC00752700120A3375D2FF75D3B043D18080CB
:100CEC000AEF64024E7004D201F525D007D006D06D
:080CFC00D0D082D083D0E03299
:100AF300BB010689828A83E0225002E722BBFE0201
:090B0300E32289828A83E4932233
:100B0C00C2D5EC30E709B2D5E4C39DFDE49CFCEE04
:100B1C0030E715B2D5E4C39FFFE49EFE120B42C32F
:100B2C00E49DFDE49CFC8003120B4230D507C3E42A
:060B3C009FFFE49EFE2273
:100B4200BC000BBE0029EF8DF084FFADF022E4CC97
:100B5200F875F008EF2FFFEE33FEEC33FCEE9DEC60
:100B6200984005FCEE9DFE0FD5F0E9E4CEFD22EDA6
:100B7200F8F5F0EE8420D21CFEADF075F008EF2FF0
:100B8200FFED33FD4007985006D5F0F222C398FDE1
:050B92000FD5F0EA227E
:00000001FF
