:03000000020D7876
:0C0D7800787FE4F6D8FD75813A0208008F
:0F0D49007D607C09ED1D70011C144C70F7DFF10B
:010D58002278
:100CE4000000000000000000000000000000000000
:070CF40000000000DFEA220E
:100C9B00E4F5BDF5BEEF44C0F5BC00000000007FDD
:100CAB00FFEF60071FE5BC542060F653BCDFAFBD00
:0C0CBB00EFFEADBE7C00E42DFFEC3EFE21
:010CC700220A
:080D690090FEB1F0C291C295A9
:070D71000000000000002259
:100A6200E53714602314603414604714605814701E
:100A720003020B0624056003020B13E4120D690442
:100A8200F0D29375BC8A807790FEB17401F0C29166
:100A9200C293120D71D29575BC89807290FEB1E439
:100AA200F0C291C293120D717404F0D29575BC8894
:100AB200804D90FEB17404F0C293C295120D71D2B2
:100AC2009175BC8A804890FEB1E4F0C293C295123F
:100AD2000D717410F0D2917F0B120C9BAA06AB071A
:100AE200AE23AF247C007D07120D26EF7803CEC320
:100AF20013CE13D8F92BF524EA3EF52375BC89757C
:100B0200E69C800D7410120D69D29375BC8875E64F
:080B1200AC30020375E68C22F1
:100B1A0043BA80C290C291C292C293C294C2955300
:100B2A0091C043923F90FED0E4F0A37403F090FE8C
:100B3A00DE7418F090FED2E4F0A374FFF090FECCBD
:100B4A00E4F0A3F090FEC5F0A3F090FEB1F0A3F09C
:100B5A0090FEC4F090FEC87468F090FED5E4F0A34D
:100B6A00F090FECCE04405F090FEB2E0F090FEC9B1
:100B7A007468F090FED7E4F0A3F090FECCE0445005
:100B8A00F090FEB2E0F090FECA7468F090FED9E4EC
:100B9A00F0A3F090FECDE04405F090FEB2E0F090B4
:100BAA00FEDD7480F090FEC004F090FEC77401F080
:010BBA002218
:100CC8004391C053923F43930F5394F075BC86757C
:0C0CD800DE2143BA8090FEA87434F022A4
:100D590075E68C75E73C43B14053B2BF43BA802274
:0300AB00020951F6
:10095100C0E0C0D075D000C000C004C005C006C052
:01096100078E
:1009620053E6BFE53A6003020A5353D1F73003045A
:10097200C203801EAFD4EFFEADD57C00E42DFFECA8
:100982003EC313F521EF13F522C39440E521941FD2
:10099200400675211F75224075D40075D50043D1DC
:1009A20008E52525E02427F8A62108A6220525C367
:1009B200E525940874809480400375250075210014
:1009C200752200E4FFEFC39408748094805016EF00
:1009D20025E02427F8E6FC08E62522F522EC35215D
:1009E200F5210F80E0E521C4F854F0C868F521E54F
:1009F20022C4540F48F522C39428E5219400400EE6
:100A0200D3E52294E8E5219403500375387DC3E5CC
:100A120022943CE5219400400E74D82522F52274DC
:100A2200FF3521F521800675210075221453D17FEF
:100A3200E52225E0F522E52133F521C3E49522F5EF
:100A420022E49521F521F5D28522D343D180753A4E
:010A520001A2
:0F0A5300D007D006D005D004D000D0D0D0E032EC
:100D38005389FC538E7F758CE0758AC0D28CD2A9FA
:010D48002288
:03000B00020D845F
:030D8400D2013267
:100CFB0043BA8053D1F0E4F5D4F5D590FEAC04F0B3
:070D0B0043AF2043D1082291
:100D120043BA8053D10FE4F5D2F5D390FEAC04F080
:040D220043AF402279
:03009B00020D87CC
:030D8700D2033262
:0300A300020C321A
:100C3200C0E0C0F0C083C082C0D075D000C000C088
:100C420002C003C004C005C006C00753D17FE53A05
:100C520064017024753A023000130537C3E53794F6
:100C620006748094804003753700120A6275D2FFC1
:100C720075D3B043D1808008E53A64027002F53A38
:100C8200D007D006D005D004D003D002D000D0D0F7
:090C9200D082D083D0F0D0E03212
:100BBB0075E68C75391E90FED6E539F090FED8F0AF
:100BCB0090FEDAF0E4F537120A627F32120D4975A6
:100BDB000A00750BC8E4FDFCC3ED950BEC950A50B0
:100BEB000C7F64120CE40DBD00010C80EBE50AC414
:100BFB00F854F0C868FEE50BC4540F48FFC3E50B6F
:100C0B009FF50BE50A9EF50A0537C3E53794067485
:100C1B008094804003E4F537120A62C3E50B9428F5
:060C2B00E50A940050AF41
:010C310022A0
:1008000053950753960753B14053B24053C9EF5322
:10081000CAEFE4F523F524120B1A120CC8120D5975
:10082000120D38120CFB120D12E4F526F538D2AF7A
:100830003001FDC201E53860281538E5387022C264
:1008400000F53975E68C90FEB1F090FED6F090FE82
:10085000D8F090FEDAF0C291C293C2957FFA120DE1
:100860004920004EC3E526941E748094804043D2F4
:1008700002E4FFEFC3940874809480500EEF25E0EB
:100880002427F876010876900F80E8120BBBC2028D
:10089000E4F53A53E6BFE53730E00575E6AC800392
:1008A00075E69CD2007FFA120D497FFA120D497548
:1008B000387D30004DE539C3952650020539E539BC
:1008C000D3952640021539C3E53994147480948079
:1008D0005020C200E4F53975E68C90FEB1F090FE30
:1008E000D6F090FED8F090FEDAF0C291C293C29595
:1008F000803590FED6E539F090FED8F090FEDAF023
:1009000080257F0B120C9BAA06AB07AE23AF247C7D
:10091000007D07120D26EF7803CEC313CE13D8F94E
:100920002BF524EA3EF523852308852409E509658E
:10093000247004E50865236006852308852409AE34
:1009400008E5097805CEC313CE13D8F9F5260208B9
:010950003076
:100D2600EF8DF0A4A8F0CF8CF0A428CE8DF0A42EE1
:020D3600FE229B
:00000001FF
