:03000000020CC12E
:0C0CC100787FE4F6D8FD7581200209114F
:0F0CA1007D607C09ED1D70011C144C70F7DFF1B4
:010CB0002221
:100C4E000000000000000000000000000000000096
:070C5E0000000000DFEA22A4
:070CCD0000000000000022FE
:100A1200E51C14602F14604614605F146076147035
:100A220003020AB424056003020AD190FEB1E4F085
:100A3200C291C2950000000004F0D29375BC8A30C6
:100A42000050806890FEB17401F0C291C293000020
:100A52000000D29575BC89300002806C806E90FED9
:100A6200B1E4F0C291C293000000007404F0D29588
:100A720075BC883000028034805290FEB17404F05C
:100A8200C293C29500000000D29175BC8A30000268
:100A92008036803890FEB1E4F0C293C29500000027
:100AA200007410F0D29175BC8930000475E69C2266
:100AB200801A90FEB17410F0C291C295000000003D
:100AC200D29375BC8830000475E6AC2275E68C22A0
:100AD20043BA80C290C291C292C293C294C2954359
:100AE200923F5391C090FED0E4F0A37403F090FEC5
:100AF200DE7418F090FED2E4F0A374FFF090FECC06
:100B0200E4F0A3F090FEC5F0A3F090FEB1F0A3F0E4
:100B120090FEC4F090FEC87468F090FED5E4F0A395
:100B2200F090FECCE04401F090FEB2E0F090FEC9FD
:100B32007468F090FED7E4F0A3F090FECCE044108D
:100B4200F090FEB2E0F090FECA7468F090FED9E434
:100B5200F0A3F090FECDE04401F090FEB2E0F09000
:100B6200FEDD7480F090FEC004F090FEC77401F0C8
:010B72002260
:100C32004391C053923F43930F5394F075BC867512
:0C0C4200DE2143BA8090FEA87434F0223A
:100CB10075E68C75E73C43B14053B2BF43BA80221D
:0300AB0002080048
:10080000C0E0C0D075D000C000C004C005C006C0A4
:0108100007E0
:1008110053E6BFE51F600302090253D1F730030419
:10082100C203801EAFD4EFFEADD57C00E42DFFECFA
:100831003EC313F508EF13F509C39440E508941F6F
:10084100400675081F75094075D40075D50043D160
:1008510008E50A25E0240CF8A60808A609050AC33C
:10086100E50A9408748094804003750A00750800B5
:10087100750900E4FFEFC39408748094805016EF6B
:1008810025E0240CF8E6FC08E62509F509EC350815
:10089100F5080F80E0E508C4F854F0C868F508E5EC
:1008A10009C4540F48F509C39428E5089400400E83
:1008B100D3E50994E8E50894035003751D7DC3E56C
:1008C10009943CE5089400400E74D82509F5097493
:1008D100FF3508F508800675080075091453D17FA6
:1008E100E50925E0F509E50833F508C3E49509F5BF
:1008F10009E49508F508F5D28509D343D180751F20
:0109010001F4
:0F090200D007D006D005D004D000D0D0D0E0323E
:100C90005389FC538E7F758CE0758AC0D28CD2A9A3
:010CA0002231
:03000B00020CD410
:030CD400D2013218
:100C650043BA8053D1F0E4F5D4F5D590FEAC04F049
:070C750043AF2043D1082228
:100C7C0043BA8053D10FE4F5D2F5D390FEAC04F017
:040C8C0043AF402210
:03009B00020CD77D
:030CD700D2033213
:0300A300020BDE6F
:100BDE00C0E0C083C082C0D075D000C006C007532D
:100BEE00D17FAF1F7E00EF64017024751F023000AD
:100BFE0013051CC3E51C9406748094804003751C79
:100C0E0000120A1275D2FF75D3B043D1808008EF5F
:100C1E0064024E7002F51FD007D006D0D0D082D01D
:040C2E0083D0E0325D
:100B730075E68C751E1E90FED6E51EF090FED8F02D
:100B830090FEDAF0E4F51C120A127F32120CA17DFA
:100B9300C87C00E4FBFAC3EB9DEA9C500C7F641213
:100BA3000C4E0BBB00010A80EDECC4F854F0C8688E
:100BB300FEEDC4540F48FFC3ED9FFDEC9EFC051CE6
:100BC300C3E51C9406748094804003E4F51C120A68
:0A0BD30012C3ED9428EC940050B911
:010BDD0022F5
:1009110053950753960753B14053B24053C9EF5310
:10092100CAEF120AD2120C32120CB1120C90120C34
:1009310065120C7CE4F50BF51DD2AF3001FDC2014F
:10094100E51D6028151DE51D7022C200F51E75E626
:100951008C90FEB1F090FED6F090FED8F090FEDAC9
:10096100F0C291C293C2957FFA120CA120004EC32E
:10097100E50B941E748094804043D202E4FFEFC3E0
:10098100940874809480500EEF25E0240CF87601D1
:100991000876900F80E8120B73C202E4F51F53E64C
:1009A100BFE51C30E00575E6AC800375E69CD2001E
:1009B1007FFA120CA17FFA120CA1751D7D30004B3C
:1009C100E51EC3950B5002051EE51ED3950B400293
:1009D100151EC3E51E9414748094805020C200E457
:1009E100F51E75E68C90FEB1F090FED6F090FED823
:1009F100F090FEDAF0C291C293C295800E90FED6BD
:100A0100E51EF090FED8F090FEDAF0750B64020955
:010A11003CA8
:00000001FF
