:100000000C942A000C9445000C9445000C94450077
:100010000C9445000C94A2040C9445000C944500EB
:100020000C9445000C9445000C9445000C9460041D
:100030000C9445000C948A020C9445000C94AF0279
:100040000C9445000C9445000C9460090C94130B1F
:100050000C94450011241FBECFE5D8E0DEBFCDBF14
:1000600010E0A0E6B0E0E8EDF7E102C005900D92E7
:10007000A637B107D9F711E0A6E7B0E001C01D929D
:10008000A233B107E1F70C9456000C940000809164
:100090008600882339F01092860080918500809335
:1000A000880002C08091880099270895C9E5D8E0AA
:1000B000DEBFCDBF00E0882499240E94EC04DB9AC7
:1000C000DC9A0E94D50284B7807E84BF0E94B3046C
:1000D00078940E94910580E50E940B0B81E090E0EE
:1000E0009A8389838EEF9FEF9C838B831E821D8270
:1000F00089819A812B813C81821B930B9E838D8306
:1001000087E690E00E94BC0490937700809376008D
:100110008EEF90E00E94BC043C018DEE93E00E94C3
:10012000BC046C0182EF93E00E94BC047C018AE174
:1001300094E00E94BC0480917600909177000E9428
:10014000C504882321F40E9447008823A1F310925C
:10015000870088E080BF11E017B98AE090E00E9434
:10016000BC04909377008093760088B38C7E88BB24
:100170001BBC1ABC19BC18BC13BC1FBD81E485BDD7
:1001800082B38F7482BB1092870080E00E949F052B
:10019000B12E0E9447008093870080917E008017D7
:1001A00071F010926200109260008AEF90E00E945D
:1001B000BC04909377008093760000917E001091AC
:1001C0008700112309F405C180916200882311F092
:1001D000B0927D008CED95E00E94BC044C018091B2
:1001E0006200882311F010928700809187000E949E
:1001F0009F05C7010E94C5048823E1F48091600037
:100200008F5F809360008130C1F180918E0090916A
:100210008F00019709F4D6C080918C0090918D00D9
:10022000019709F0B6CF10928D0010928C000E94B9
:10023000550BAFCF84EF91E00E94BC047C01B092DB
:100240000001809187008093010120917900309115
:100250007A00832F992780930201209303018091D4
:1002600081008093040187E00E9406038091600072
:100270008F5F80936000813041F680916200882317
:1002800009F0C3C0C3010E94C504882309F0C5C09A
:10029000C6010E94C504882309F0EEC08091760053
:1002A000909177000E94C504882331F08091CC00A2
:1002B0009091CD00892B29F080917D00882309F44D
:1002C000A4CF11E010936200439884E690E00E946E
:1002D000BC04909377008093760080917D00882302
:1002E00009F493CFDB9A1092820010927D008AE08D
:1002F0000E94AE05882309F405C1DC9810926200C3
:1003000080917E00815080937E0010938700812F22
:100310000E949F0588B18C7F88B9439A84E190E060
:100320000E94BC04909377008093760080917600C1
:10033000909177000E94C5048823C1F38FE08093D9
:1003400087000E949F058CE291E090937700809354
:10035000760011E001E480917600909177000E9490
:10036000C504282F882309F580918300909184008B
:10037000819788F388B38C7E88BB1BBC1ABC19BCE0
:1003800018BC23BD1FBD05BD82B38F7482BB88E03E
:100390000E94FB0410937D0080917600909177007D
:1003A0000E94C504282F8823F9F282E390E00E947E
:1003B000BC046C0107E080918E0090918F00019742
:1003C00009F02ACF10928F0010928E000E944703EE
:1003D00023CF10937D0010936000C4010E94C504D8
:1003E000882309F4FCCE4398B092620088B38C7ED7
:1003F00088BB1BBC1ABC19BC18BC13BDBFBC81E4B4
:1004000085BD82B38F7482BBEACE0E942305C301EF
:100410000E94C504882309F43BCF82E390E00E9448
:10042000BC043C0140918100242F3327809183003C
:10043000909184002817390708F059C04F5F409306
:1004400081008338910508F44FC090916300892F93
:10045000829586958770981B909363004234E8F1EB
:10046000992319F0915090936300DB98C6010E9484
:10047000C504882309F412CF8AE090E00E94BC04EE
:100480006C01439820917B0030917C003093CD002B
:100490002093CC0010927C0010927B008091780019
:1004A000682F772788279927439AB09261002115F2
:1004B000310519F120EC31E040E050E00E94700B72
:1004C0009B01AC0160E077E883E993E00E94AF0B09
:1004D00030937A0020937900E1CE9F3F09F4D8CE83
:1004E0009F5F90936300D4CE90916300B7CF821743
:1004F000930708F0A6CF4150A2CF30937A00209303
:100500007900CCCE0E944700882309F47ECE109358
:100510007D007BCE1F920F920FB60F9211248F9306
:100520009F93EF93FF939CB180918900823340F4B5
:10053000E82FFF27E253FF4F90838F5F809389005E
:1005400084E090E090938F0080938E00FF91EF9174
:100550009F918F910F900FBE0F901F9018951F9233
:100560000F920FB60F9211248F939F93EF93FF93E7
:1005700090918A0080918B00981750F4E92FFF2703
:10058000E050FF4F9F5F90938A0080818CB904C038
:1005900010928A0010928B00FF91EF919F918F91A2
:1005A0000F900FBE0F901F901895599A8AB18861CD
:1005B0008AB98AB1806C8AB980B5866080BD10BC6A
:1005C00080E189B908958CB9089520E030E0833046
:1005D000E0F090E0E82FFF27AF0142505040241791
:1005E000350764F4D901A050BF4F8C91280F311DFD
:1005F0009F5FA92FBB27A417B507ACF3E050FF4FAF
:100600003297832F992781932083089580938B00BD
:1006100091E090938A00909100019CB90E94E502BC
:10062000089540E050E070918900733010F4CA01E1
:10063000089560E0872F99270297481759076CF4AF
:10064000FA019C01E253FF4F8081480F511D6F5FFB
:10065000E62FFF27E217F307ACF39A013070E72F7C
:10066000FF27E253FF4F82913196992728173907C8
:1006700019F080E090E00895252F3327329780818C
:10068000992728173907A9F781E090E008959091FC
:10069000CE0080916400981709F00FC10E941103E9
:1006A000882309F40AC18091D0009927582F442744
:1006B0008091D100480F511D8091CF00282F332702
:1006C00026303105B9F127303105CCF4233031051E
:1006D00009F466C0243031050CF04AC021303105E0
:1006E00009F497C02230310509F0E7C041305105C7
:1006F00009F4DFC0452B09F0E0C0DC9ADEC02930E8
:10070000310509F45DC02A30310504F52730310583
:1007100009F498C02830310509F0CFC041305105A7
:1007200039F04230510509F0C8C088B38C7F88BBCE
:10073000C49AC3C04130510539F04230510509F027
:10074000BCC088B38D7E88BBC09AB7C02B30310542
:1007500009F48DC02B3031050CF47FC02C303105ED
:1007600009F0ABC081E08093860040938500A5C06E
:100770002430310509F456C02530310509F09DC0FB
:100780004130510509F497C04230510509F095C038
:1007900081E88FBD81E485BD82B38F7682BB8DC039
:1007A0004130510509F461C04230510509F085C05E
:1007B00081E08FBD81E685BD82B38F7C82BB7DC029
:1007C0004230510509F44DC04330510560F44115E4
:1007D000510509F464C04130510509F06EC082B37F
:1007E0008F7482BB6AC04330510539F044305105E3
:1007F00009F063C088B38C7E88BB1BBC1ABC19BCD3
:1008000018BC13BC81E08FBD81E485BD82B38F74B9
:10081000E8CF4130510509F44AC0452B09F04DC0DD
:10082000DB9A4BC04130510509F43FC042305105BD
:1008300009F043C081E28FBD81E485BD82B38F752D
:1008400082BB3BC04130510531F042305105A9F522
:1008500088B38E7E88BBC19A30C0842F0E949F05CA
:100860002CC088B38C7E88BB28C0979A9DCF842FDC
:100870000E94AE0588B38C7E88BB1BBC1ABC19BC19
:1008800018BC13BC81E08FBD81E485BD82B38F7439
:1008900082BB1092870080E00E949F050EC088B343
:1008A0008C7E88BB82B38F749CCF949ABFCFDB9829
:1008B00004C0DC9802C0959A67CF10928900089511
:1008C0001F920F920FB60F9211248F939F938091D6
:1008D000930081508F3F19F0809393002CC083E0E8
:1008E0008093930080919000909191000196909355
:1008F00091008093900080918E0090918F000297DC
:1009000080F480918C0090918D000297A0F08091EE
:100910008C0090918D00019790938D0080938C00B6
:100920000AC080918E0090918F00019790938F0064
:1009300080938E00E6CF9F918F910F900FBE0F9006
:100940001F9018951F920F920FB60F9211248F933C
:10095000809192008F5F809392008F910F900FBED5
:100960000F901F90189582E083BF89B7816089BF7F
:1009700089B7806489BF08952091900030919100DB
:10098000280F391FC90101970895209190003091D7
:100990009100821B930B892F990F990B80780895F2
:1009A000CF93DF930E94BC04EC01CE010E94C504EA
:1009B0008823D9F3DF91CF91089501972FEF8F3FCF
:1009C0009207D9F780E090E0089592B7980F82B728
:1009D000891B87FDFCCF089588E18ABB1BBA83E1A0
:1009E00087BB80EE88BB14BA83E085BB8AEB81BBF2
:1009F00080E482BB0895CF93C82F78940AC0DB9817
:100A00008CE291E00E94D004DB9A8CE291E00E949B
:100A1000D004C150A0F788EE93E00E94D004CF919B
:100A20000895982F27B187B910BE83ED86B9349AFF
:100A300097B9369A349BFECF27B916B888E080BFA5
:100A400084B195B1089586E00E9411059C01220FA2
:100A5000331F220F331F293C310510F028EC30E002
:100A6000309384002093830080918200992782171D
:100A7000930720F48091830080938200089586E09C
:100A80000E941105AC01440F551F440F551F493CEE
:100A9000510510F048EC50E0209183003091840023
:100AA000C901880F991F880F991F880F991F821BF2
:100AB000930B840F951F9695879596958795969598
:100AC0008795909384008093830020918200332740
:100AD0002817390720F480918300809382000895BD
:100AE000CF93C82F0FC00E94230580917F00909163
:100AF000800088589F4F2091830030918400821796
:100B0000930728F0C15078F780E090E008C088B3E0
:100B10008C7E88BB82B38F7482BB81E090E0CF91E2
:100B200008951BBC1ABC19BC18BC13BC91E09FBD36
:100B300081E485BD82B38F7482BB9EBD0895282F4A
:100B400080916300821710F4282FDB98822F992759
:100B50009BBD8ABD99BD88BD23BD0895DF92EF92EC
:100B6000FF920F931F93CF93DF93CDB7DEB72297FA
:100B70000FB6F894DEBF0FBECDBFD82E8CE2E82EA4
:100B800081E0F82E439885E0809387000E949F05BE
:100B90000E94980AC7010E94BC049093770080933A
:100BA000760080917600909177000E94C504182FFE
:100BB0008823F1F40E9423058091830090918400A2
:100BC0008F3B910570F388B38C7E88BB1BBC1ABC2D
:100BD00019BC18BC13BD81E08FBD81E485BD82B313
:100BE0008F7482BB8AE00E94FB0480E090E05FC0CB
:100BF0001A821982D092870010927E0000E010E0E5
:100C00000E151F0540F484E60E94E5040F5F1F4F98
:100C10000E151F05C0F30E9423058091830090915B
:100C20008400893C910580F589819A8101969A8397
:100C3000898389E1E816F10450F0C7016FE070E0A4
:100C40000E949B0BE61AF70A0894E108F10889E173
:100C5000E816F10450F10E94980A80917E008F5F9F
:100C600080937E0080917E0066E00E948F0B9093BF
:100C70007E000E943F05D09287008D2D0E949F0527
:100C8000449BBCCFDC98BACF88B38C7E88BB1BBC9E
:100C90001ABC19BC18BC13BC81E08FBD81E485BDB2
:100CA00082B38F7482BB85E09ECF81E090E0229674
:100CB0000FB6F894DEBF0FBECDBFDF91CF911F916D
:100CC0000F91FF90EF90DF9008959F92AF92BF92A7
:100CD000CF92DF92EF92FF920F931F93CF93DF9308
:100CE000CDB7DEB7C05AD1400FB6F894DEBF0FBE05
:100CF000CDBF10E0912E5E010894A11CB11C80E1D3
:100D0000E5E6F0E0D50101900D928A95E1F7439870
:100D1000F89488B38C7E88BB1BBC1ABC19BC18BC69
:100D200013BC81E08FBD81E485BD82B38F7482BB2B
:100D30001092820082E30E947005809182009927C0
:100D40009093800080937F00109284001092830023
:100D5000CC24DD240CC085E090E00E94DD040894E2
:100D6000C11CD11CB8EECB16B3E0DB0658F5C09A17
:100D700081E00E94700588B38C7E88BB82B38F743B
:100D800082BB85E090E00E94DD04979A81E00E949A
:100D9000700588B38C7E88BB82B38F7482BB8091D0
:100DA0007F0090918000CC96209183003091840048
:100DB0008217930780F614E088B38C7E88BB82B3D9
:100DC0008F7482BB80E197E20E94DD041092840060
:100DD00010928300CC24DD240CC085E090E00E94BA
:100DE000DD040894C11CD11CE8EECE16E3E0DE065B
:100DF00058F5C19A81E00E94700588B38C7E88BB4B
:100E000082B38F7482BB85E090E00E94DD04949AE7
:100E100081E00E94700588B38C7E88BB82B38F749A
:100E200082BB80917F0090918000CC9620918300BE
:100E3000309184008217930780F615E088B38C7E8A
:100E400088BB82B38F7482BB80E197E20E94DD048D
:100E50001092840010928300CC24DD240CC085E025
:100E600090E00E94DD040894C11CD11CF8EECF165E
:100E7000F3E0DF0658F5C49A81E00E94700588B35C
:100E80008C7E88BB82B38F7482BB85E090E00E9429
:100E9000DD04959A81E00E94700588B38C7E88BB42
:100EA00082B38F7482BB80917F0090918000CC963A
:100EB00020918300309184008217930780F616E01A
:100EC00088B38C7E88BB82B38F7482BB80E197E24B
:100ED0000E94DD04112321F0812F0E94FB04FCCF2E
:100EE00040E951E060E070E0CE0141960E94660B5F
:100EF00017B888B38C7E88BB82B38F7482BB109284
:100F0000840010928300C19AC49ACC24DD24898184
:100F10009A819C014427552760EB71E78BE090E0B4
:100F20000E94D10B121613061406150624F135C0C3
:100F3000F1E09F2A82B38F7482BB89819A810E94DB
:100F4000DD040894C11CD11CA2E0B0E0AA0EBB1EB7
:100F500076010027112789819A819C014427552712
:100F600060EB71E78BE090E00E94D10BE216F30694
:100F70000407150794F4979A81E090E00E94DD043D
:100F800080E00E941105F501918B808B8089918909
:100F9000C39770F68EEF9822CDCF88B38C7E88BB36
:100FA00082B38F7482BBC09AC49ACC24DD248B8117
:100FB0009C819C014427552760EB71E78BE090E012
:100FC0000E94D10B12161306140615060CF499C0D4
:100FD00088B38C7E88BB82B38F7482BBC09AC19A5F
:100FE000CC24DD248D819E819C014427552760EB14
:100FF00071E78BE090E00E94D10B121613061406E5
:1010000015060CF435C188B38C7E88BB82B38F740F
:1010100082BBC09ACC24DD248F8198859C01442713
:10102000552760EB71E78BE090E00E94D10B121620
:101030001306140615060CF4BFC088B38C7E88BB5B
:1010400082B38F7482BBC49ACC24DD2489859A85AF
:101050009C014427552760EB71E78BE090E00E94EC
:10106000D10B12161306140615060CF4D3C088B360
:101070008C7E88BB82B38F7482BBC19ACC24DD2462
:101080008B859C859C014427552760EB71E78BE09D
:1010900090E00E94D10B12161306140615060CF4EC
:1010A0005DC088B38C7E88BB82B38F7482BB78941A
:1010B000892D992783FDE9C014E0812F0E94FB044C
:1010C000FCCFB2E09B2A82B38F7482BB8B819C8160
:1010D0000E94DD040894C11CD11C76010027112751
:1010E0008B819C819C014427552760EB71E78BE045
:1010F00090E00E94D10BE216F306040715070CF0EE
:1011000067CF949A81E090E00E94DD0481E00E9424
:101110001105C397B0F6EDEF9E22D5CFFFEE9F22CB
:1011200082B38F7482BB8B859C850E94DD040894FA
:10113000C11CD11C7601002711278B859C859C0141
:101140004427552760EB71E78BE090E00E94D10BBC
:10115000E216F306040715070CF0A3CF959A81E079
:1011600090E00E94DD0481E00E9411058138910524
:10117000A8F680E1982AD4CF97EF992282B38F7492
:1011800082BB8F8198850E94DD040894C11CD11C0C
:101190007601002711278F8198859C0144275527C8
:1011A00060EB71E78BE090E00E94D10BE216F30652
:1011B000040715070CF041CF949A81E090E00E945B
:1011C000DD0480E00E94110581389105A8F6A8E0B1
:1011D0009A2AD4CFBFED9B2282B38F7482BB8985BC
:1011E0009A850E94DD040894C11CD11C7601002759
:1011F000112789859A859C014427552760EB71E763
:101200008BE090E00E94D10BE216F306040715076D
:101210000CF02DCF949A81E090E00E94DD0482E0F2
:101220000E94110581389105A8F6E0E29E2AD4CFEC
:10123000F4E09F2A82B38F7482BB8D819E810E94CD
:10124000DD040894C11CD11C7601002711278D8173
:101250009E819C014427552760EB71E78BE090E06D
:101260000E94D10BE216F306040715070CF0CBCE53
:10127000959A81E090E00E94DD0482E00E941105D1
:10128000C397B0F68BEF9822D5CF84FD02C015E04E
:1012900014CF85FD02C016E010CFC056DE4F0FB64A
:1012A000F894DEBF0FBECDBFDF91CF911F910F919C
:1012B000FF90EF90DF90CF90BF90AF909F900895F8
:1012C0001F920F920FB60F921124FF920F931F934C
:1012D0002F933F934F935F936F937F938F939F933E
:1012E000AF93BF93CF93EF93FF9301E481E6F82E82
:1012F000459B1EC0C1E080917E00992782309105F8
:10130000F1F0833091058CF5009709F452C00197F4
:1013100009F4C3C0459902C0CC2351F7459B02C0D4
:10132000CC2331F380919400863009F0ECC0CEC01C
:10133000C0E080917E0099278230910511F781E20B
:101340008FBD05BD82B38F7582BBCC2309F484C0E9
:1013500088B38D7E88BBC09A80916100882309F094
:1013600076C082E087B9409836C08430910509F490
:1013700078C0843091050CF442C0059759F688B3C3
:101380008E7E88BBC19ACC2309F0AFC081E08FBDAF
:10139000F5BC82B38F7C82BB80916100882309F009
:1013A000AFC082E087B988B1836088B9C0937E00FE
:1013B00017C011E01FBDF5BC82B38F7C82BBCC236C
:1013C000A1F188B38C7F88BBC49A80916100882387
:1013D000C1F5409817B980917E008F5F80937E00A1
:1013E00080917B0090917C00019690937C0080938B
:1013F0007B00809194008F5F809394008BCF88B3A3
:101400008D7E88BBC09ACC23A9F481E88FBD05BD31
:1014100082B38F7682BB809161008823A9F481E03A
:1014200087B988B1836088B9D6CF88B38E7E88BBF0
:10143000C19A70CF81E28FBD05BD82B38F7582BB2B
:1014400069CF0E943F05C5CF0E943F05E8CF0E94AB
:101450003F0582E087B987CF88B38C7F88BBC49A69
:1014600059CF81E88FBD05BD82B38F7682BBCC2377
:1014700079F088B38E7E88BBC19A80916100882301
:1014800019F417B84098A7CF0E943F0517B8FACFB4
:1014900088B38D7E88BBC09A3DCF88B38C7F88BBD4
:1014A000C49ACC2361F481E28FBD05BD82B38F75F0
:1014B00082BB809161008823F9F4C7B9B2CF81E083
:1014C0008FBDF5BC82B38F7C82BB24CF1092940079
:1014D000809192008093960090919500282F291B6F
:1014E00020937800809395000EC081E88FBD05BDE4
:1014F00082B38F7682BB0ECF0E943F05C7B991CFD2
:101500000E943F054ECFFF91EF91CF91BF91AF91D8
:101510009F918F917F916F915F914F913F912F910B
:101520001F910F91FF900F900FBE0F901F90189575
:1015300080917E0099278230910599F08330910542
:1015400054F084309105E9F1843091055CF1059700
:1015500009F453C008950097A1F0019709F43FC022
:10156000089581E28FBD81E485BD82B38F7582BB12
:1015700088B38C7F88BBC49A17B888B1836088B958
:10158000089581E08FBD81E685BD82B38F7C82BBEB
:1015900088B38E7E88BBC19A82E087B988B18360A8
:1015A00088B9089581E28FBD81E485BD82B38F75CE
:1015B00082BB88B38D7E88BBC09A82E087B9409891
:1015C000089581E88FBD81E485BD82B38F7682BBAB
:1015D00088B38D7E88BBC09A81E087B9DFCF91E068
:1015E0009FBD81E685BD82B38F7C82BB88B38C7F33
:1015F00088BBC49A97B94098089581E88FBD81E46B
:1016000085BD82B38F7682BB88B38E7E88BBC19A3C
:1016100017B84098089590916400990F980F92B967
:1016200085EC86BF08951F920F920FB60F9211247A
:101630008F939F93EF93FF9381B1887F9927803891
:10164000910581F08138910524F0803A910521F5CA
:101650001AC08036910501F51092970086B7806810
:1016600086BF1AC0909197009233C0F7E92FFF27E9
:10167000E856FF4F83B180839F5F9093970086B7B2
:10168000806886BF09C081E090E090938D008093D0
:101690008C0086B7806886BFFF91EF919F918F91F4
:1016A0000F900FBE0F901F90189580919900809514
:1016B000909198009813089581E08093860090930C
:1016C000850010929900109298000895DC0140FF67
:1016D00003C001C06D936D9342505040D8F70895F8
:1016E000629FD001739FF001829FE00DF11D649F06
:1016F000E00DF11D929FF00D839FF00D749FF00D92
:10170000659FF00D9927729FB00DE11DF91F639F32
:10171000B00DE11DF91FBD01CF0111240895991BE2
:1017200079E004C0991F961708F0961B881F7A95D8
:10173000C9F780950895AA1BBB1B51E107C0AA1FDA
:10174000BB1FA617B70710F0A61BB70B881F991F62
:101750005A95A9F780959095BC01CD010895A1E215
:101760001A2EAA1BBB1BFD010DC0AA1FBB1FEE1F1B
:10177000FF1FA217B307E407F50720F0A21BB30B66
:10178000E40BF50B661F771F881F991F1A9469F7E2
:1017900060957095809590959B01AC01BD01CF013E
:1017A000089597FB092E05260ED057FD04D0D7DFEC
:1017B0000AD0001C38F450954095309521953F4F44
:1017C0004F4F5F4F0895F6F790958095709561950E
:0817D0007F4F8F4F9F4F0895DA
:1017D800010101FF016A18BE15881354124710ACA5
:0617E8000E050D350C009A
:00000001FF
