:03000000020F8666
:0C0F8600787FE4F6D8FD75812A020A117C
:100006002D2D5445535445522D2D004672657128A9
:10001600487A293A202035300057696428757329B3
:10002600203A20202020004F757470757420203AE5
:1000360020204F4E004F757470757420203A204F63
:100046004646000000000000000000002F000000EF
:10005600000700070000147F147F1400242A7F2A5B
:100066001200626408132300364955225000000529
:1000760003000000001C224100000041221C000079
:1000860014083E08140008083E0808000000A06096
:100096000000080808080800006060000000201042
:1000A600080402003E5149453E0000427F400000E0
:1000B6004261514946002141454B31001814127FD7
:1000C60010002745454539003C4A49493000017131
:1000D60009050300364949493600064949291E00E3
:1000E6000036360000000056360000000814224193
:1000F6000000141414141400004122140800020114
:1001060051090600324959513E007C1211127C00F9
:100116007F49494936003E41414122007F41412203
:100126001C007F49494941007F09090901003E41F8
:1001360049497A007F0808087F0000417F41000096
:100146002040413F01007F08142241007F4040408B
:1001560040007F020C027F007F0408107F003E41B2
:1001660041413E007F09090906003E4151215E00DA
:100176007F091929460046494949310001017F0195
:1001860001003F4040403F001F2040201F003F40ED
:1001960038403F006314081463000708700807001E
:1001A600615149454300007F41410000552A552AC7
:1001B60055000041417F0000040201020400404056
:1001C60040404000000102040000205454547800CE
:1001D6007F48444438003844444420003844444866
:1001E6007F00385454541800087E0901020018A4F0
:1001F600A4A47C007F080404780000447D4000002D
:100206004080847D00007F102844000000417F402C
:1002160000007C04180478007C0804047800384444
:1002260044443800FC242424180018242418FC0014
:100236007C0804040800485454542000043F4440F9
:1002460020003C4040207C001C2040201C003C40FC
:1002560030403C004428102844001CA0A0A07C008C
:100266004464544C44141414141414000000000084
:100276000000000000000000000000000000F80080
:10028600000000000000333000000000100C0610D3
:100296000C0600000000000000000040C07840C0CE
:1002A600784000043F04043F040400007088FC0802
:1002B600300000001820FF211E0000F008F000E0CA
:1002C60018000000211C031E211E0000F008887083
:1002D6000000001E2123241927211010160E0000ED
:1002E6000000000000000000000000000000E01810
:1002F600040200000000071820400000020418E075
:100306000000000040201807000000404080F080F8
:100316004040000202010F01020200000000F0004E
:100326000000000101011F010101000000000000A2
:1003360000000080B0700000000000000000000017
:1003460000000000010101010101010000000000A0
:1003560000000000303000000000000000000080B7
:10036600601804006018060100000000E01008088C
:1003760010E000000F102020100F00001010F800F1
:100386000000000020203F20200000007008080820
:100396008870000030282422213000003008888828
:1003A6004830000018202020110E000000C0201048
:1003B600F8000000070424243F240000F808888879
:1003C6000808000019212020110E0000E01088887E
:1003D600180000000F112020110E0000380808C870
:1003E6003808000000003F00000000007088080880
:1003F600887000001C222121221C0000E010080841
:1004060010E0000000312222110F00000000C0C0E1
:1004160000000000000030300000000000008000F6
:100426000000000000806000000000000080402006
:10043600100800000102040810200040404040401F
:100446004040000404040404040400000810204092
:10045600800000002010080402010000704808080F
:1004660008F0000000003036010000C030C828E85F
:1004760010E0000718272423140B000000C038E002
:10048600000000203C23020227382008F8888888CC
:10049600700000203F202020110E00C03008080800
:1004A600083800071820202010080008F808080857
:1004B60010E000203F202020100F0008F88888E870
:1004C600081000203F20202320180008F88888E81C
:1004D600081000203F200003000000C03008080874
:1004E60038000007182020221E020008F808000025
:1004F60008F808203F210101213F20000808F808DC
:100506000800000020203F2020000000000808F816
:10051600080800C08080807F00000008F888C02896
:10052600180800203F20012638200008F80800009F
:10053600000000203F20202020300008F8F800F8B6
:10054600F80800203F003F003F200008F830C000B8
:1005560008F808203F200007183F00E010080808A8
:1005660010E0000F10202020100F0008F8080808DF
:1005760008F000203F210101010000E010080808F2
:1005860010E0000F18242438504F0008F888888897
:10059600887000203F2000030C3020007088080877
:1005A6000838000038202121221C00180808F80805
:1005B6000818000000203F2000000008F80800008E
:1005C60008F808001F202020201F00087888000057
:1005D600C83808000007380E010000F80800F800C7
:1005E60008F800033C0700073C03000818688080F1
:1005F60068180820302C03032C30200838C800C89F
:100606003808000000203F2000000010080808C835
:100616003808002038262120201800000000FE029D
:100626000202000000007F40404000000C30C00085
:10063600000000000000010638C00000020202FEB1
:10064600000000004040407F00000000000402025D
:10065600020400000000000000000000000000008E
:10066600000000808080808080808000020204007C
:1006760000000000000000000000000000808080F4
:100686008000000019242222223F2008F8008080E2
:10069600000000003F112020110E000000008080A5
:1006A600800000000E112020201100000000808034
:1006B60088F800000E112020103F20000080808066
:1006C600800000001F222222221300008080F08872
:1006D6008888180020203F202000000000808080AD
:1006E600808000006B94949493600008F8008080EA
:1006F600800000203F210000203F200080989800C5
:100706000000000020203F2020000000000080980C
:1007160098000000C08080807F000008F8000080FC
:10072600808000203F24022D302000000808F800B9
:100736000000000020203F20200000808080808074
:10074600808000203F20003F20003F808000808086
:10075600800000203F210000203F20000080808094
:10076600800000001F202020201F00808000808045
:1007760000000080FFA12020110E000000008080F4
:10078600808000000E112020A0FF808080800080E5
:1007960080800020203F2120000100000080808012
:1007A6008080000033242424241900008080E08007
:1007B6008000000000001F20200000808000000054
:1007C600808000001F202020103F208080800000B5
:1007D60080808000010E30080601008080008000C5
:1007E6008080800F300C030C300F0000808000806A
:1007F6008080000020312E0E312000808080000095
:1008060080808080818E7018060100008080808044
:100816008080000021302C22213000000000008062
:100826007C020200000000003F404000000000FF84
:1008360000000000000000FF0000000002027C80B3
:100846000000000040403F000000000006010102D9
:0B08560002040400000000000000008D
:100F50007D517C04ED1D70011C144C70F7EF1F7067
:060F6000011E144E70EAB0
:010F66002268
:100F3600EF4E60157D087C07ED1DAA0470011C4A62
:090F460070F6EF1F70EA1E80E74F
:010F4F00227F
:0A0E0E00120E18E4FF120E187F10F8
:100E1800ED6004D2B58002C2B5C2B4E4FEEEC3945C
:100E280008748094805015C296EF30E704D29780FA
:100E380002C297D296EF25E0FF0E80E1D2B4D2B578
:010E48002287
:100F1600AC07ED24B0FFE4FD120E18EC54F0C454F7
:100F26000F4410FF120E18EC540F4401FF020E1866
:100F6700E4FD7F8D120E187F14120E187FAF020E4C
:010F77001861
:0C0F9200E4FD7F8D120E137FAE020E18DE
:100EBC00E4FCECC39408748094805022EC24B0FFC2
:100ECC00E4FD120E0EE4FBEBC3948074809480500E
:0E0EDC000A7D01E4FF120E180B80EC0C80D48E
:010EEA0022E5
:060C7900AA07A905AF0364
:100C7F00E4FCEF24E0FBEAD3947F7480948040047B
:100C8F00E4FA0909AF02AD01120F16E4FCECC394AC
:100C9F000874809480502475F010EBA42CF582E436
:100CAF0035F0F583E5822471F582E5833402F5830F
:100CBF00E493FF7D01120E180C80D2AF02E904FD00
:100CCF00120F16E4FCECC3940874809480502475C2
:100CDF00F010EBA42CF582E435F0F583E58224794E
:100CEF00F582E5833402F583E493FF7D01120E183C
:030CFF000C80D294
:010D020022CE
:040E83008F138D1428
:100E8700E4751801F517F516F515AF141514EF608D
:100E97001BAB18AA17A916A815AF13E4FCFDFE1281
:100EA70008E38F188E178D168C1580DEAF18AE17D6
:040EB700AD16AC15B3
:010EBB002214
:100BE900851D0D851C0C851B0B851A0A750E047550
:060BF9000F107D047F5087
:040BFF008F088D09C5
:100C0300E4F512F510E510C3950E5069C3E50E9592
:100C13001014FD7F0A120E83A804A905AA06AB07C8
:100C2300AF0DAE0CAD0BAC0A12096EE47B0AFAF9F8
:100C3300F812096EAF038F11E5127020E50E14FF51
:100C4300E510C39F5016E511700FE50FC313851010
:100C5300F0A42508FF7B208013751201E50FC31351
:100C63008510F0A42508FFE5112430FBAD09120C13
:050C73007905108090DE
:010C78002259
:080DC5007A00792D7D067F08FC
:0A0DCD008F088D098B0A8A0B890C30
:100DD700E4F50DAB0AAA0BA90C850D8275830012E9
:100DE7000861FB6021AD09AF08120C79740825086A
:100DF700F508D39478748094804007E4F5080509D2
:060E07000509050D80CD78
:010E0D0022C2
:040D03008F218B238E
:100D0700E4F528F529E5245407700BE5241313139C
:100D1700541FF52A800AE524131313541F04F52AD8
:100D27008D2AE52AC395245034AD2AAF21120F1618
:100D3700AC21ECC395235021AB25AA26A927052969
:100D4700E529AE287002052814F5828E8312086102
:0D0D5700FF7D01120E180C80D9052A80C501
:010D6400226C
:100B4300D2B67F647E00120F36C2B67F647E001277
:100B53000F36D2B6E4FD7FAE120E0E7F40120E1892
:100B63007F81120E187FCF120E187FA1120E187FED
:100B7300C8120E187FA6120E187FA8120E187F3FF8
:100B8300120E187FD3120E18E4FF120E187FD5121F
:100B93000E187F80120E187FD9120E187FF1120ED5
:100BA300187FDA120E187F12120E187FDB120E183E
:100BB3007F40120E187F20120E187F02120E187F2C
:100BC3008D120E187F14120E187FA4120E187FA612
:100BD300120E187FAF120E187FAF120E18120EBC32
:060BE300E4FDFF020F1605
:0D0F78007FB87EFFE4F5898F8A8E8CD28CC5
:010F85002249
:040E49008D828C8387
:100E4D007C007D4E12088EC3E49FFF8FEA8FFAAEB1
:100E5D0083AF827C007D4E12088EC3E49FFF8FEB23
:100E6D008FFBAE02AF037C007D4E12088EC3E49F54
:050E7D00FF8FEC8FFC6B
:010E8200224D
:100EEB00E4F5D875D904F5E9F5F975DA42F5F2753B
:100EFB00DB42F5F375DC42F5F47BF47A017DF47C8F
:0B0F0B00017FF47E01120E49D2DE22AD
:03000300020D6586
:0B0D6500C0E0C0D075D000C006C00781
:100D7000A2B29203A2B39204200105D20175190018
:100D8000A203300401B3501B0519AF19EF3395E0EE
:100D9000FED3EF9464EE648094804003751964D2AE
:100DA000028019C2021519AF19EF3395E0FEC3EFA7
:0C0DB000949CEE6480947F500375199CA5
:090DBC00D007D006D0D0D0E032FF
:050F9E00C288D2A82268
:100A110043BA80E4F594F593F592F591F596F59541
:100A2100F5B2F5B1F5CAF5C9120F78120EEB120F36
:100A31009E120B43120EBCE4751DF4751C01F51BCF
:100A4100F51AD2007BFF7A007906FD7F19120DCDD0
:100A51007BFF7A0079117D027F08120DCD7BFF7A31
:100A610000791F7D047F08120DCD120BE97BFF1267
:100A71000DC5D2AF200103020B1285191EC2013030
:100A81000217E51D2432F51DE4351CF51CE4351B68
:100A9100F51BE4351AF51A8019C3E51D9432F51DCD
:100AA100E51C9400F51CE51B9400F51BE51A940068
:100AB100F51AE47FC47E09FDFCAB1DAA1CA91BA885
:100AC1001AD3120A00400BE4751DC4751C09F51BED
:100AD100F51AE47FF47E01FDFCAB1DAA1CA91BA83D
:100AE1001AC3120A00500BE4751DF4751C01F51BA5
:100AF100F51A7BFF7A00791F7D047F08120DCD1254
:100B01000BE9AC1CAD1DAF05AE04AA1CAB1D120E4A
:100B11004920CD247F057E00120F3620CD1AB20068
:100B21007BFF300007120DC5D2DE80097A00793BC8
:100B3100120DC9C2DE30CDFD7F057E00120F3602D7
:020B41000A7533
:10086100BB010CE58229F582E5833AF583E022504C
:1008710006E92582F8E622BBFE06E92582F8E22296
:0D088100E58229F582E5833AF583E49322B0
:10088E00BC000BBE0029EF8DF084FFADF022E4CC4E
:10089E00F875F008EF2FFFEE33FEEC33FCEE9DEC17
:1008AE00984005FCEE9DFE0FD5F0E9E4CEFD22ED5D
:1008BE00F8F5F0EE8420D21CFEADF075F008EF2FA7
:1008CE00FFED33FD4007985006D5F0F222C398FD98
:0508DE000FD5F0EA2235
:1008E300E88FF0A4CC8BF0A42CFCE98EF0A42CFCB4
:1008F3008AF0EDA42CFCEA8EF0A4CDA8F08BF0A432
:100903002DCC3825F0FDE98FF0A42CCD35F0FCEB90
:100913008EF0A4FEA9F0EB8FF0A4CFC5F02ECD3955
:0F092300FEE43CFCEAA42DCE35F0FDE43CFC22C2
:1009320075F008758200EF2FFFEE33FECD33CDCC7C
:1009420033CCC58233C5829BED9AEC99E5829840FF
:100952000CF582EE9BFEED9AFDEC99FC0FD5F0D6DC
:10096200E4CEFBE4CDFAE4CCF9A88222B800C1B906
:100972000059BA002DEC8BF084CFCECDFCE5F0CB44
:10098200F97818EF2FFFEE33FEED33FDEC33FCEB7D
:1009920033FB10D703994004EB99FB0FD8E5E4F938
:1009A200FA227818EF2FFFEE33FEED33FDEC33FC25
:1009B200C933C910D7059BE99A4007EC9BFCE99A19
:1009C200F90FD8E0E4C9FAE4CCFB2275F010EF2F5E
:1009D200FFEE33FEED33FDCC33CCC833C810D7075E
:1009E2009BEC9AE899400AED9BFDEC9AFCE899F899
:0E09F2000FD5F0DAE4CDFBE4CCFAE4C8F9222C
:100A0000EB9FF5F0EA9E42F0E99D42F0E89C45F04C
:010A100022C3
:00000001FF
