:03000000020E7677
:0C0E7600787FE4F6D8FD75812C0209F6A7
:100006004F4C45442054455354005A484F4E474A96
:10001600494E475955414E00323031342F30352F35
:1000260030310041534349493A005550202000449D
:100036004F574E004E4F4E45000000000000000096
:1000460000002F000000000700070000147F147F47
:100056001400242A7F2A12006264081323003649FA
:1000660055225000000503000000001C224100003C
:100076000041221C000014083E08140008083E082F
:1000860008000000A06000000808080808000060DA
:10009600600000002010080402003E5149453E0061
:1000A60000427F4000004261514946002141454BD4
:1000B60031001814127F10002745454539003C4A87
:1000C600494930000171090503003649494936009E
:1000D600064949291E000036360000000056360043
:1000E60000000814224100001414141414000041E6
:1000F60022140800020151090600324959513E00F6
:100106007C1211127C007F49494936003E4141412B
:1001160022007F4141221C007F49494941007F0955
:10012600090901003E4149497A007F0808087F0015
:1001360000417F4100002040413F01007F0814221A
:1001460041007F40404040007F020C027F007F0458
:1001560008107F003E4141413E007F090909060023
:100166003E4151215E007F09192946004649494909
:10017600310001017F0101003F4040403F001F2048
:1001860040201F003F4038403F00631408146300BE
:10019600070870080700615149454300007F414147
:1001A6000000552A552A55000041417F00000402EF
:1001B60001020400404040404000000102040000EB
:1001C6002054545478007F4844443800384444440A
:1001D6002000384444487F00385454541800087EA0
:1001E6000901020018A4A4A47C007F080404780076
:1001F60000447D4000004080847D00007F1028443C
:10020600000000417F4000007C04180478007C0850
:1002160004047800384444443800FC24242418009C
:1002260018242418FC007C0804040800485454547C
:100236002000043F444020003C4040207C001C201D
:1002460040201C003C4030403C004428102844001C
:100256001CA0A0A07C004464544C44141414141430
:100266001400000000000000000000000000000074
:1002760000000000F800000000000000333000001D
:100286000000100C06100C06000000000000000024
:100296000040C07840C0784000043F04043F040496
:1002A60000007088FC08300000001820FF211E00A6
:1002B60000F008F000E018000000211C031E211EBB
:1002C6000000F00888700000001E21232419272151
:1002D6001010160E000000000000000000000000D4
:1002E60000000000E018040200000000071820408B
:1002F6000000020418E0000000004020180700007B
:1003060000404080F0804040000202010F010202DE
:1003160000000000F0000000000101011F010101C2
:1003260000000000000000000080B0700000000027
:1003360000000000000000000000010101010101B1
:100346000100000000000000000030300000000046
:10035600000000000080601804006018060100001C
:100366000000E010080810E000000F102020100F19
:1003760000001010F8000000000020203F202000A0
:1003860000007008080888700000302824222130F8
:100396000000300888884830000018202020110E00
:1003A600000000C02010F8000000070424243F24A9
:1003B6000000F80888880808000019212020110E7E
:1003C6000000E0108888180000000F112020110E90
:1003D6000000380808C83808000000003F00000088
:1003E600000070880808887000001C222121221C49
:1003F6000000E010080810E0000000312222110F72
:1004060000000000C0C00000000000003030000006
:100416000000000080000000000000806000000076
:10042600000000804020100800000102040810208F
:1004360000404040404040400004040404040404DA
:10044600000008102040800000002010080402016F
:1004560000007048080808F000000000303601006F
:1004660000C030C828E810E0000718272423140B22
:10047600000000C038E0000000203C2302022738BC
:100486002008F8888888700000203F202020110E60
:1004960000C0300808080838000718202020100877
:1004A6000008F808080810E000203F202020100F60
:1004B6000008F88888E8081000203F20202320182C
:1004C6000008F88888E8081000203F200003000094
:1004D60000C03008080838000007182020221E0235
:1004E6000008F808000008F808203F210101213F14
:1004F60020000808F8080800000020203F202000FF
:100506000000000808F8080800C08080807F00000E
:100516000008F888C028180800203F200126382047
:100526000008F8080000000000203F2020202030AE
:100536000008F8F800F8F80800203F003F003F20C8
:100546000008F830C00008F808203F200007183FD0
:1005560000E01008080810E0000F10202020100FFF
:100566000008F808080808F000203F2101010100F2
:1005760000E01008080810E0000F18242438504F37
:100586000008F8888888887000203F2000030C3017
:100596002000708808080838000038202121221C15
:1005A60000180808F8080818000000203F2000007E
:1005B6000008F808000008F808001F202020201F67
:1005C600000878880000C83808000007380E0100C7
:1005D60000F80800F80008F800033C0700073C0391
:1005E60000081868808068180820302C03032C3017
:1005F600200838C800C83808000000203F20000046
:100606000010080808C838080020382621202018BD
:1006160000000000FE020202000000007F40404091
:1006260000000C30C000000000000000010638C0C9
:100636000000020202FE000000004040407F000071
:100646000000000402020204000000000000000096
:100656000000000000000000008080808080808014
:1006660080000202040000000000000000000000FC
:100676000000008080808000000019242222223F92
:100686002008F8008080000000003F112020110E95
:10069600000000008080800000000E112020201144
:1006A60000000000808088F800000E112020103F16
:1006B600200000808080800000001F22222222135A
:1006C60000008080F0888888180020203F202000C5
:1006D600000000808080808000006B94949493607A
:1006E6000008F8008080800000203F210000203FA5
:1006F6002000809898000000000020203F20200065
:1007060000000000809898000000C08080807F0074
:100716000008F8000080808000203F24022D302051
:1007260000000808F8000000000020203F202000FC
:10073600008080808080808000203F20003F200055
:100746003F8080008080800000203F210000203F05
:10075600200000808080800000001F202020201FB5
:1007660000808000808000000080FFA12020110E04
:10077600000000008080808000000E112020A0FF75
:1007860080808080008080800020203F2120000122
:1007960000000080808080800000332424242419F7
:1007A60000008080E0808000000000001F20200004
:1007B600008080000000808000001F202020103F65
:1007C60020808080000080808000010E30080601B5
:1007D6000080800080008080800F300C030C300F7A
:1007E6000000808000808080000020312E0E3120A5
:1007F60000808080000080808080818E70180601D5
:100806000000808080808080000021302C222130F2
:100816000000000000807C020200000000003F4053
:100826004000000000FF00000000000000FF000084
:10083600000002027C800000000040403F000000F3
:10084600000006010102020404000000000000008E
:0108560000A1
:100E2D007D517C04ED1D70011C144C70F7EF1F708B
:060E3D00011E144E70EAD4
:010E4300228C
:100E1300EF4E60157D087C07ED1DAA0470011C4A86
:090E230070F6EF1F70EA1E80E773
:010E2C0022A3
:0A0CEB00120CF5E4FF120CF57F1067
:100CF500ED6004D2B58002C2B5C2B4E4FEEEC39481
:100D050008748094805015C296EF30E704D297801E
:100D150002C297D296EF25E0FF0E80E1D2B4D2B59C
:010D250022AB
:100DF300AC07ED24B0FFE4FD120CF5EC54F0C45441
:100E03000F4410FF120CF5EC540F4401FF020CF5D4
:100E5700E4FD7F8D120CF57F14120CF57FAF020CA9
:010E6700F595
:0C0E8200E4FD7F8D120CF07FAE020CF539
:100D9900E4FCECC39408748094805022EC24B0FFE6
:100DA900E4FD120CEBE4FBEBC39480748094805057
:0E0DB9000A7D01E4FF120CF50B80EC0C80D4D7
:010DC7002209
:060B4400AA07A905AF039A
:100B4A00E4FCEF24E0FBEAD3947F748094804004B1
:100B5A00E4FA0909AF02AD01120DF3E4FCECC39407
:100B6A000874809480502475F010EBA42CF582E46C
:100B7A0035F0F583E5822467F582E5833402F5834F
:100B8A00E493FF7D01120CF50C80D2AF02E904FD5B
:100B9A00120DF3E4FCECC39408748094805024751D
:100BAA00F010EBA42CF582E435F0F583E582246F8E
:100BBA00F582E5833402F583E493FF7D01120CF597
:030BCA000C80D2CA
:010BCD002205
:040D60008F218D2230
:100D6400E4752601F525F524F523AF221522EF605D
:100D74001BAB26AA25A924A823AF21E4FCFDFE125F
:100D840008D98F268E258D248C2380DEAF26AE25B0
:040D9400AD24AC23BB
:010D98002238
:040BCE008F088D09F6
:100BD200E4F512F510E510C3950E5069C3E50E95C4
:100BE2001014FD7F0A120D60A804A905AA06AB071E
:100BF200AF0DAE0CAD0BAC0A120964E47B0AFAF934
:100C0200F8120964AF038F11E5127020E50E14FF8C
:100C1200E510C39F5016E511700FE50FC313851041
:100C2200F0A42508FF7B208013751201E50FC31382
:100C32008510F0A42508FFE5112430FBAD09120B45
:050C4200440510809044
:010C4700228A
:0A0CAA008F278D288B298A2A892BB9
:100CB400E4F52CAB29AA2AA92B852C827583001272
:100CC4000857FB6021AD28AF27120B447408252771
:100CD400F527D39478748094804007E4F527052899
:060CE4000528052C80CD5F
:010CEA0022E7
:040C48008F138B1566
:100C4C00E4F51AF51BE5165407700BE51613131390
:100C5C00541FF51C800AE516131313541F04F51CBE
:100C6C008D1CE51CC395165034AD1CAF13120DF33F
:100C7C00AC13ECC395155021AB17AA18A919051B79
:100C8C00E51BAE1A7002051A14F5828E83120857F2
:0D0C9C00FF7D01120CF50C80D9051C80C5F0
:010CA9002228
:100A9E00D2B67F647E00120E13C2B67F647E001241
:100AAE000E13D2B6E4FD7FAE120CEB7F40120CF5A6
:100ABE007F81120CF57FCF120CF57FA1120CF57F02
:100ACE00C8120CF57FA6120CF57FA8120CF57F3F0D
:100ADE00120CF57FD3120CF5E4FF120CF57FD51234
:100AEE000CF57F80120CF57FD9120CF57FF1120CEC
:100AFE00F57FDA120CF57F12120CF57FDB120CF576
:100B0E007F40120CF57F20120CF57F02120CF57F40
:100B1E008D120CF57F14120CF57FA4120CF57FA626
:100B2E00120CF57FAF120CF57FAF120CF5120D996A
:060B3E00E4FDFF020DF3CF
:0D0E68007FB87EFFE4F5898F8A8E8CD28CD6
:010E7500225A
:040D26008D828C83AB
:100D2A007C007D4E120884C3E49FFF8FEA8FFAAEDF
:100D3A0083AF827C007D4E120884C3E49FFF8FEB51
:100D4A008FFBAE02AF037C007D4E120884C3E49F82
:050D5A00FF8FEC8FFC8F
:010D5F002271
:100DC800E4F5D875D904F5E9F5F975DA42F5F2755F
:100DD800DB42F5F375DC42F5F47BF47A017DF47CB3
:0B0DE800017FF47E01120D26D2DE22F6
:03000300020E44A6
:100E4400200003D2003230B305D201051D32C201A5
:030E5400151D3237
:050E8E00D288D2A82269
:1009F60043BA80E4F594F593F592F591F596F5955D
:100A0600F5B2F5B1F5CAF5C9120E68120DC8120E87
:100A16008E120A9E120D997BFF7A007906E4FD7FFD
:100A26001E120CAA7BFF7A0079107D027F08120C39
:100A3600AA7BFF7A00791E7D047F14120CAA7BFF25
:100A46007A0079297D06E4FF120CAAD2AF30003F66
:100A5600C200AF1DEF3395E0FED3EF9400EE648045
:100A6600948040087BFF7A0079308019AF1DEF3300
:100A760095E0C3648094807BFF50067A00793580C8
:100A8600047A00793A7D067F3F120CAAE4F51D7FB1
:080A9600057E00120E2D80B553
:10085700BB010CE58229F582E5833AF583E0225056
:1008670006E92582F8E622BBFE06E92582F8E222A0
:0D087700E58229F582E5833AF583E49322BA
:10088400BC000BBE0029EF8DF084FFADF022E4CC58
:10089400F875F008EF2FFFEE33FEEC33FCEE9DEC21
:1008A400984005FCEE9DFE0FD5F0E9E4CEFD22ED67
:1008B400F8F5F0EE8420D21CFEADF075F008EF2FB1
:1008C400FFED33FD4007985006D5F0F222C398FDA2
:0508D4000FD5F0EA223F
:1008D900E88FF0A4CC8BF0A42CFCE98EF0A42CFCBE
:1008E9008AF0EDA42CFCEA8EF0A4CDA8F08BF0A43C
:1008F9002DCC3825F0FDE98FF0A42CCD35F0FCEB9B
:100909008EF0A4FEA9F0EB8FF0A4CFC5F02ECD395F
:0F091900FEE43CFCEAA42DCE35F0FDE43CFC22CC
:1009280075F008758200EF2FFFEE33FECD33CDCC86
:1009380033CCC58233C5829BED9AEC99E582984009
:100948000CF582EE9BFEED9AFDEC99FC0FD5F0D6E6
:10095800E4CEFBE4CDFAE4CCF9A88222B800C1B910
:100968000059BA002DEC8BF084CFCECDFCE5F0CB4E
:10097800F97818EF2FFFEE33FEED33FDEC33FCEB87
:1009880033FB10D703994004EB99FB0FD8E5E4F942
:10099800FA227818EF2FFFEE33FEED33FDEC33FC2F
:1009A800C933C910D7059BE99A4007EC9BFCE99A23
:1009B800F90FD8E0E4C9FAE4CCFB2275F010EF2F68
:1009C800FFEE33FEED33FDCC33CCC833C810D70768
:1009D8009BEC9AE899400AED9BFDEC9AFCE899F8A3
:0E09E8000FD5F0DAE4CDFBE4CCFAE4C8F92236
:00000001FF
