:03000000020F31BB
:0C0F3100787FE4F6D8FD75812A0209FCE7
:100006004D4F44453A534552564F00467265712846
:10001600487A293A353000576964287573293A2099
:100026002020202020004F75743A204F4E000000FB
:10003600000000000000002F00000000070007007D
:1000460000147F147F1400242A7F2A120062640899
:100056001323003649552250000005030000000016
:100066001C224100000041221C000014083E081416
:100076000008083E0808000000A060000008080804
:100086000808000060600000002010080402003E1E
:100096005149453E0000427F4000004261514946B9
:1000A600002141454B31001814127F1000274545A9
:1000B6004539003C4A4949300001710905030036BB
:1000C6004949493600064949291E000036360000CE
:1000D60000005636000000081422410000141414D3
:1000E60014140000412214080002015109060032CE
:1000F6004959513E007C1211127C007F494949360C
:10010600003E41414122007F4141221C007F494976
:100116004941007F09090901003E4149497A007FAA
:100126000808087F0000417F4100002040413F0150
:10013600007F08142241007F40404040007F020CAF
:10014600027F007F0408107F003E4141413E007F50
:1001560009090906003E4151215E007F0919294619
:100166000046494949310001017F0101003F4040F5
:10017600403F001F2040201F003F4038403F0063A3
:1001860014081463000708700807006151494543C5
:1001960000007F41410000552A552A550000414183
:1001A6007F0000040201020400404040404000007D
:1001B60001020400002054545478007F4844443817
:1001C60000384444442000384444487F003854549E
:1001D600541800087E0901020018A4A4A47C007F1C
:1001E600080404780000447D4000004080847D00BF
:1001F600007F102844000000417F4000007C041866
:100206000478007C0804047800384444443800FC30
:10021600242424180018242418FC007C080404084C
:1002260000485454542000043F444020003C4040C1
:10023600207C001C2040201C003C4030403C0044F8
:1002460028102844001CA0A0A07C004464544C4400
:100256001414141414140000000000000000000020
:10026600000000000000000000F800000000000090
:1002760000333000000000100C06100C06000000D1
:1002860000000000000040C07840C0784000043FF5
:1002960004043F040400007088FC083000000018C5
:1002A60020FF211E0000F008F000E01800000021E9
:1002B6001C031E211E0000F00888700000001E218D
:1002C60023241927211010160E000000000000003C
:1002D600000000000000000000E01804020000001A
:1002E60000071820400000020418E000000000404B
:1002F600201807000000404080F0804040000202C5
:10030600010F01020200000000F0000000000101E0
:10031600011F01010100000000000000000080B084
:100326007000000000000000000000000000000156
:100336000101010101010000000000000000003081
:10034600300000000000000000008060180400601B
:1003560018060100000000E010080810E000000F79
:10036600102020100F00001010F8000000000020E0
:10037600203F202000000070080808887000003028
:1003860028242221300000300888884830000018D0
:10039600202020110E000000C02010F800000007E9
:1003A6000424243F240000F808888808080000195F
:1003B600212020110E0000E0108888180000000F90
:1003C600112020110E0000380808C8380800000067
:1003D600003F000000000070880808887000001CBC
:1003E600222121221C0000E010080810E000000075
:1003F600312222110F00000000C0C00000000000E2
:100406000030300000000000008000000000000006
:1004160080600000000000008040201008000001FD
:1004260002040810200040404040404040000404C0
:10043600040404040400000810204080000000208A
:10044600100804020100007048080808F0000000C7
:10045600003036010000C030C828E810E000071858
:10046600272423140B000000C038E0000000203CC5
:1004760023020227382008F8888888700000203F69
:10048600202020110E00C030080808083800071880
:1004960020202010080008F808080810E000203F77
:1004A600202020100F0008F88888E8081000203F58
:1004B60020202320180008F88888E8081000203F2C
:1004C600200003000000C0300808083800000718A4
:1004D6002020221E020008F808000008F808203F25
:1004E600210101213F20000808F80808000000202B
:1004F600203F2020000000000808F8080800C080FF
:1005060080807F00000008F888C028180800203F77
:1005160020012638200008F8080000000000203FCF
:1005260020202020300008F8F800F8F80800203FC6
:10053600003F003F200008F830C00008F808203FC0
:10054600200007183F00E01008080810E0000F1010
:10055600202020100F0008F808080808F000203FA7
:10056600210101010000E01008080810E0000F1842
:10057600242438504F0008F8888888887000203F67
:100586002000030C30200070880808083800003866
:10059600202121221C00180808F80808180000006D
:1005A600203F2000000008F808000008F808001F97
:1005B600202020201F000878880000C83808000086
:1005C60007380E010000F80800F80008F800033CA0
:1005D6000700073C03000818688080681808203068
:1005E6002C03032C30200838C800C8380800000047
:1005F600203F2000000010080808C83808002038EE
:10060600262120201800000000FE02020200000041
:10061600007F40404000000C30C000000000000099
:1006260000010638C00000020202FE000000004081
:1006360040407F00000000000402020204000000A7
:1006460000000000000000000000000000008080A4
:10065600808080808080000202040000000000008C
:10066600000000000000000080808080000000196B
:10067600242222223F2008F8008080000000003F4C
:10068600112020110E000000008080800000000E66
:10069600112020201100000000808088F800000E44
:1006A600112020103F200000808080800000001F65
:1006B600222222221300008080F0888888180020D9
:1006C600203F202000000000808080808000006B9A
:1006D60094949493600008F8008080800000203F86
:1006E600210000203F200080989800000000002094
:1006F600203F20200000000000809898000000C0E5
:100706008080807F000008F8000080808000203F05
:1007160024022D302000000808F800000000002008
:10072600203F202000008080808080808000203F45
:1007360020003F20003F8080008080800000203F16
:10074600210000203F200000808080800000001FE4
:10075600202020201F00808000808000000080FF75
:10076600A12020110E000000008080808000000E75
:10077600112020A0FF8080808000808080002020C3
:100786003F2120000100000080808080800000332F
:10079600242424241900008080E0808000000000CA
:1007A600001F202000008080000000808000001FC5
:1007B600202020103F208080800000808080000163
:1007C6000E300806010080800080008080800F3097
:1007D6000C030C300F000080800080808000002019
:1007E600312E0E3120008080800000808080808144
:1007F6008E701806010000808080808080000021B5
:10080600302C2221300000000000807C0202000013
:100816000000003F404000000000FF000000000014
:100826000000FF0000000002027C80000000004083
:10083600403F00000000000601010202040400001F
:06084600000000000000AC
:100EFB007D517C04ED1D70011C144C70F7EF1F70BD
:060F0B00011E144E70EA05
:010F110022BD
:100EE100EF4E60157D087C07ED1DAA0470011C4AB8
:090EF10070F6EF1F70EA1E80E7A5
:010EFA0022D5
:0A0DB900120DC3E4FF120DC37F10FA
:100DC300ED6004D2B58002C2B5C2B4E4FEEEC394B2
:100DD30008748094805015C296EF30E704D2978050
:100DE30002C297D296EF25E0FF0E80E1D2B4D2B5CE
:010DF30022DD
:100EC100AC07ED24B0FFE4FD120DC3EC54F0C454A3
:100ED1000F4410FF120DC3EC540F4401FF020DC368
:100F1200E4FD7F8D120DC37F14120DC37FAF020D4E
:010F2200C30B
:0C0F3D00E4FD7F8D120DBE7FAE020DC3DF
:100E6700E4FCECC39408748094805022EC24B0FF17
:100E7700E4FD120DB9E4FBEBC394807480948050B9
:0E0E87000A7D01E4FF120DC30B80EC0C80D439
:010E9500223A
:060C2200AA07A905AF03BB
:100C2800E4FCEF24E0FBEAD3947F748094804004D2
:100C3800E4FA0909AF02AD01120EC1E4FCECC39459
:100C48000874809480502475F010EBA42CF582E48D
:100C580035F0F583E582245CF582E5833402F5837B
:100C6800E493FF7D01120DC30C80D2AF02E904FDAD
:100C7800120EC1E4FCECC39408748094805024756F
:100C8800F010EBA42CF582E435F0F583E5822464BA
:100C9800F582E5833402F583E493FF7D01120DC3E9
:030CA8000C80D2EB
:010CAB002226
:040E2E008F138D147D
:100E3200E4751801F517F516F515AF141514EF60E2
:100E42001BAB18AA17A916A815AF13E4FCFDFE12D6
:100E520008CE8F188E178D168C1580DEAF18AE1740
:040E6200AD16AC1508
:010E66002269
:100B9200851D0D851C0C851B0B851A0A750E0475A7
:060BA2000F107D047F4FDF
:040BA8008F088D091C
:100BAC00E4F512F510E510C3950E5069C3E50E95EA
:100BBC001014FD7F0A120E2EA804A905AA06AB0775
:100BCC00AF0DAE0CAD0BAC0A120959E47B0AFAF965
:100BDC00F8120959AF038F11E5127020E50E14FFBE
:100BEC00E510C39F5016E511700FE50FC313851068
:100BFC00F0A42508FF7B208013751201E50FC313A9
:100C0C008510F0A42508FFE5112430FBAD09120C6A
:050C1C0022051080908C
:010C210022B0
:0A0D6E007A00791D7D047BFF7F08E9
:0A0D78008F088D098B0A8A0B890C85
:100D8200E4F50DAB0AAA0BA90C850D82758300123E
:100D9200084CFB6021AD09AF08120C22740825082B
:100DA200F508D39478748094804007E4F508050927
:060DB2000509050D80CDCE
:010DB8002218
:040CAC008F218B23E6
:100CB000E4F528F529E5245407700BE524131313F4
:100CC000541FF52A800AE524131313541F04F52A30
:100CD0008D2AE52AC395245034AD2AAF21120EC1C6
:100CE000AC21ECC395235021AB25AA26A9270529C1
:100CF000E529AE287002052814F5828E8312084C6F
:0D0D0000FF7D01120DC30C80D9052A80C5AE
:010D0D0022C3
:100AEC00D2B67F647E00120EE1C2B67F647E001225
:100AFC000EE1D2B6E4FD7FAE120DB97F40120DC3EC
:100B0C007F81120DC37FCF120DC37FA1120DC37F46
:100B1C00C8120DC37FA6120DC37FA8120DC37F3F51
:100B2C00120DC37FD3120DC3E4FF120DC37FD51278
:100B3C000DC37F80120DC37FD9120DC37FF1120D2F
:100B4C00C37FDA120DC37F12120DC37FDB120DC3EC
:100B5C007F40120DC37F20120DC37F02120DC37F85
:100B6C008D120DC37F14120DC37FA4120DC37FA66B
:100B7C00120DC37FAF120DC37FAF120DC3120E67E0
:060B8C00E4FDFF020EC1B2
:0D0F23007FB87EFFE4F5898F8A8E8CD28C1A
:010F3000229E
:040DF4008D828C83DD
:100DF8007C007D4E120879C3E49FFF8FEA8FFAAE1C
:100E080083AF827C007D4E120879C3E49FFF8FEB8D
:100E18008FFBAE02AF037C007D4E120879C3E49FBE
:050E2800FF8FEC8FFCC0
:010E2D0022A2
:100E9600E4F5D875D904F5E9F5F975DA42F5F27590
:100EA600DB42F5F375DC42F5F47BF47A017DF47CE4
:0B0EB600017FF47E01120DF4D2DE2259
:03000300020D0EDD
:0B0D0E00C0E0C0D075D000C006C007D8
:100D1900A2B29202A2B39203200005D20075190073
:100D2900A202300301B3501B0519AF19EF3395E047
:100D3900FED3EF9464EE648094804003751964D205
:100D4900018019C2011519AF19EF3395E0FEC3EF00
:0C0D5900949CEE6480947F500375199CFC
:090D6500D007D006D0D0D0E03256
:050F4900C288D2A822BD
:1009FC0043BA80E4F594F593F592F591F596F59557
:100A0C00F5B2F5B1F5CAF5C9120F23120E96120FF5
:100A1C0049E4751DF4751C01F51BF51A120AEC124C
:100A2C000E677BFF7A007906E4FD7F08120D787A59
:100A3C000079117D02120D74120D6E120B927BFF58
:100A4C007A00792C7D067F08120D78D2AF3000FD2C
:100A5C0085191EC200300117E51D2432F51DE43541
:100A6C001CF51CE4351BF51BE4351AF51A8019C36B
:100A7C00E51D9432F51DE51C9400F51CE51B940056
:100A8C00F51BE51A9400F51AE47FC47E09FDFCAB56
:100A9C001DAA1CA91BA81AD31209EB400BE4751D47
:100AAC00C4751C09F51BF51AE47FF47E01FDFCAB43
:100ABC001DAA1CA91BA81AC31209EB500BE4751D27
:100ACC00F4751C01F51BF51A120D6E120B92AC1C71
:100ADC00AD1DAF05AE04AA1CAB1D120DF4020A59D4
:10084C00BB010CE58229F582E5833AF583E0225061
:10085C0006E92582F8E622BBFE06E92582F8E222AB
:0D086C00E58229F582E5833AF583E49322C5
:10087900BC000BBE0029EF8DF084FFADF022E4CC63
:10088900F875F008EF2FFFEE33FEEC33FCEE9DEC2C
:10089900984005FCEE9DFE0FD5F0E9E4CEFD22ED72
:1008A900F8F5F0EE8420D21CFEADF075F008EF2FBC
:1008B900FFED33FD4007985006D5F0F222C398FDAD
:0508C9000FD5F0EA224A
:1008CE00E88FF0A4CC8BF0A42CFCE98EF0A42CFCC9
:1008DE008AF0EDA42CFCEA8EF0A4CDA8F08BF0A447
:1008EE002DCC3825F0FDE98FF0A42CCD35F0FCEBA6
:1008FE008EF0A4FEA9F0EB8FF0A4CFC5F02ECD396B
:0F090E00FEE43CFCEAA42DCE35F0FDE43CFC22D7
:10091D0075F008758200EF2FFFEE33FECD33CDCC91
:10092D0033CCC58233C5829BED9AEC99E582984014
:10093D000CF582EE9BFEED9AFDEC99FC0FD5F0D6F1
:10094D00E4CEFBE4CDFAE4CCF9A88222B800C1B91B
:10095D000059BA002DEC8BF084CFCECDFCE5F0CB59
:10096D00F97818EF2FFFEE33FEED33FDEC33FCEB92
:10097D0033FB10D703994004EB99FB0FD8E5E4F94D
:10098D00FA227818EF2FFFEE33FEED33FDEC33FC3A
:10099D00C933C910D7059BE99A4007EC9BFCE99A2E
:1009AD00F90FD8E0E4C9FAE4CCFB2275F010EF2F73
:1009BD00FFEE33FEED33FDCC33CCC833C810D70773
:1009CD009BEC9AE899400AED9BFDEC9AFCE899F8AE
:0E09DD000FD5F0DAE4CDFBE4CCFAE4C8F92241
:1009EB00EB9FF5F0EA9E42F0E99D42F0E89C45F062
:0109FB0022D9
:00000001FF
