:030000000207797B
:0C077900787FE4F6D8FD7581640200DE94
:1006F9002D2D42727573686C6573732045534320C1
:09070900546573742D2D0D0A00D6
:0300230002065F73
:10065F00C0E0C0D075D000C000C007309904C29967
:10066F00C203309814C298AF41054174552FF8A6B4
:10067F0099E599B40A03434180D007D000D0D0D078
:02068F00E03257
:1007280075985075D7CC75D6FF758E15E4F541C20E
:0207380003229A
:080003002003FDD2038F9922B6
:1000AE008B0E8A0F8910AB0EAA0FA9101204E560F1
:1000BE00130510E5107002050F14F91204E5FF1276
:0500CE00000380E222A6
:10044700C290C291C292C293C294C29543923F5343
:1004570091C090FED0E4F0A37403F090FEDE741810
:10046700F090FED2E4F0A374FFF090FECCE4F0A38A
:10047700F090FEC5F0A3F090FEB1F0A3F090FEC49B
:10048700F090FEC87468F090FED5E4F0A3F090FEFB
:10049700CCE04401F090FEB2E0F090FEC97468F041
:1004A70090FED7E4F0A3F090FECCE04410F090FE6D
:1004B700B2E0F090FECA7468F090FED9E4F0A3F0C1
:1004C70090FECDE04401F090FEB2E0F090FEDD74C6
:0E04D70080F090FEC004F090FEC77401F02289
:100611004395085396F790FE12E04408F090FEEDE2
:10062100E4F090FEB5E054BFF090FEF0E4F0A3F0EA
:1006310090FEFEF090FEB6E0543FF090FEEA743278
:10064100F0A314F090FEED7411F0E0F0E04420F01E
:0E06510090FEE4E04410F090FEE07401F02210
:0300DB00020566B5
:10056600C0E0C0F0C083C082C0D075D000C000C05B
:1005760004C005C006C00790FEE5E030E424E05460
:10058600EFF0D20590FEF9E0FEA3E0FFA3E0FCA3A6
:10059600E0C39FFFEC9EFE7C007D181204FE8E5386
:1005A6008F54D007D006D005D004D000D0D0D0824A
:0705B600D083D0F0D0E03249
:1006E0004391C053923F43930F5394F075BC86756A
:0906F000DE2190FEA87434F02212
:0F075C007D607C09ED1D70011C144C70F7DFF1FE
:01076B00226B
:0706C2007FE11206C97FE190
:1006C9000000000000000000000000000000000021
:0706D90000000000DFEA222F
:10038700E53D14602F14604614605F1460761470A6
:10039700030204292405600302044690FEB1E4F039
:1003A700C291C2950000000004F0D29375BC8A3058
:1003B7000450806890FEB17401F0C291C2930000AE
:1003C7000000D29575BC89300402806C806E90FE67
:1003D700B1E4F0C291C293000000007404F0D2951A
:1003E70075BC883004028034805290FEB17404F0EA
:1003F700C293C29500000000D29175BC8A300402F6
:100407008036803890FEB1E4F0C293C295000000B8
:10041700007410F0D29175BC8930040475E69C22F3
:10042700801A90FEB17410F0C291C29500000000CE
:10043700D29375BC8830040475E6AC2275E68C222D
:1000260075E68C75422890FED6E542F090FED8F033
:1000360090FEDAF0E4F53D1203877F3212075C7D0D
:10004600C87C00E4FBFAC3EB9DEA9C500C7F64126B
:1000560006C90BBB00010A80EDECC4F854F0C86871
:10006600FEEDC4540F48FFC3ED9FFDEC9EFC053D1D
:10007600C3E53D9406748094804003E4F53D120385
:0A00860087C3ED9428EC940050B9F4
:01009000224D
:10073A005389FC538E7F758CE0758AC0D28CD2A9FE
:01074A00228C
:10000E0053D1F0E4F5D4F5D590FEAC04F043AF2017
:04001E0043D10822A0
:10074B0053D10FE4F5D2F5D390FEAC04F043AF4098
:01075B00227B
:03000B000200915F
:03009100D2003268
:03009B00020094CC
:03009400D2013264
:0300A3000205BD96
:1005BD00C0E0C083C082C0D075D000C006C0075354
:1005CD00D17FAF257E00EF640170247525023004C4
:1005DD0013053DC3E53D9406748094804003753D3D
:1005ED000012038775D2FF75D3B043D1808008EF19
:1005FD0064024E7002F525D007D006D0D0D082D03F
:04060D0083D0E03284
:0D076C0043B14053B2BF75E68C75E73C22E7
:0300AB0002029FAF
:10029F00C0E0C0D075D000C000C002C004C005C00F
:0302AF0006C0077F
:1002B20053E6BFE525600302037653D1F730010808
:1002C200C2017C1F7DFF8013AFD4EFFEADD57C0051
:1002D200E42DFFEC3EC313FCEF13FD75D40075D57E
:1002E2000043D108E53825E02443F8A60408A60512
:1002F2000538C3E53894087480948040037538004B
:100302007C007D00E4FFEFC3940874809480501257
:10031200EF25E02443F8E6FA08E62DFDEA3CFC0F5F
:1003220080E4ECC4F854F0C868FCEDC4540F48FDF6
:10033200D39428EC9400400BED94E8EC9403500322
:1003420075227DD3ED9428EC9400400A74D82DFDDB
:1003520074FF3CFC80047C007D1453D17FED25E0CA
:10036200FDEC33FCC3E49DFDE49CF5D28DD343D177
:04037200807525016C
:10037600D007D006D005D004D002D000D0D0D0E02F
:010386003244
:10069100AD07AC06D295ED1DAE0470011C4E601A7B
:1006A100D2907F321206C9C2901206C2D2927F3214
:1006B1001206C9C2921206C280DCC295C290C292D1
:0106C1002216
:1000DE0043BA801207121204471206E012076C127E
:1000EE00073A12000E12074B120611120728D2AC55
:1000FE00E4F521F542F5227FFA12075C7FF47E01CA
:10010E001206917FFA12075CD2AF7BFF7A0679F95D
:10011E001200AE3000FDC200E522602A1522E52253
:10012E007024C204F54275E68C90FEB1F090FED5B7
:10013E00F0A3F0A3F0A3F0A3F0A3F0C291C293C278
:10014E00957FFA12075C200452C3E521942874802F
:10015E0094804047D202E4F508C3E5089408748001
:10016E0094805010E50825E02443F8760108769037
:10017E00050880E5120026C202E4F52553E6BFE528
:10018E003D30E00575E6AC800375E69CD2047FFA3F
:10019E0012075C7FFA12075C75227D30043DE54242
:1001AE00C3952150020542E542D3952140021542E6
:1001BE00C3E5429423748094805012C204E4F54245
:1001CE0075E68C90FEB1F0C291C293C29590FED6A8
:1001DE00E542F090FED8F090FEDAF0E50925E02435
:1001EE0028F8A65308A6540509530907E4F50DF59A
:1001FE000CF50BF50AF508C3E50894087480948095
:10020E005027E50825E02428F8E6FE08E6FFE4FC82
:10021E00FDE50D2FF50DE50C3EF50CED350BF50B53
:10022E00EC350AF50A050880CEAF0DAE0CAD0BAC61
:10023E000A78031205538E268F27C3E527944CE5C3
:10024E002694045006752119020121D3E527946CDA
:10025E00E526940740067521E6020121C3E52794A1
:10026E004CE52694045003020121D3E527946CE556
:10027E002694074003020121E5272418FFE52634C2
:10028E00FCFEEF7802CEC313CE13D8F9F52102018E
:01029E00213E
:10071200E4F594F593F592F591F596F595F5B2F524
:06072200B1F5CAF5CA2280
:1004E500BB010689828A83E0225002E722BBFE0215
:0904F500E32289828A83E4932248
:1004FE00BC000BBE0029EF8DF084FFADF022E4CCE2
:10050E00F875F008EF2FFFEE33FEEC33FCEE9DECAA
:10051E00984005FCEE9DFE0FD5F0E9E4CEFD22EDF0
:10052E00F8F5F0EE8420D21CFEADF075F008EF2F3A
:10053E00FFED33FD4007985006D5F0F222C398FD2B
:05054E000FD5F0EA22C8
:10055300E8600FECC313FCED13FDEE13FEEF13FF86
:03056300D8F122AA
:00000001FF
