:0300000002008C6F
:0C008C00787FE4F6D8FD75810702005E65
:10005E0043BA801200761200031200001200001242
:08006E00000012000002000076
:10007600E4F594F593F592F591F596F595F5B2F5C7
:06008600B1F5CAF5CA2223
:10000300C290C291C292C293C294C29543923F538B
:1000130091C090FED0E4F0A37403F090FEDE741858
:10002300F090FED2E4F0A374FFF090FECCE4F0A3D2
:10003300F090FEC5F0A3F090FEB1F0A3F090FEC4E3
:10004300F090FEC87468F090FED5E4F0A3F090FE43
:0B005300CCE04405F090FEB2E0F0228B
:00000001FF
