:030000000204EA0D
:0C04EA00787FE4F6D8FD758144020361C0
:100465002D2D42727573686C657373204553432057
:10047500546573742D2D0D0A00414443383A000D1F
:020485000A006B
:030023000203E3F2
:1003E300C0E0C0D075D000C000C007309904C299E6
:1003F300C203309814C298AF24052474352FF8A68D
:1004030099E599B40A03432480D007D000D0D0D013
:02041300E032D5
:05041500E52430E7259D
:10041A00547FF50A7B007A007935120440E4F50B23
:10042A00E50BC3950A500B7435250BF8E4F6050B5A
:05043A0080EEE4F52452
:01043F00229A
:1003610043BA801204A012016E12048712008D128A
:1003710004C812000E1204D91204B6D2ACD2AF7B5B
:08038100FF7A047965120440C3
:100389001204157F081203B08E088F097BFF7A04C7
:10039900797E120440AF09AE081202B67BFF7A04D7
:0503A9007984120440FC
:0203AE0080D9F4
:1004A000E4F594F593F592F591F596F595F5B2F599
:0604B000B1F5CAF5CA22F5
:10016E00C290C291C292C293C294C29543923F531F
:10017E0091C090FED0E4F0A37403F090FEDE7418EC
:10018E00F090FED2E4F0A374FFF090FECCE4F0A366
:10019E00F090FEC5F0A3F090FEB1F0A3F090FEC477
:1001AE00F090FEC87468F090FED5E4F0A3747FF072
:1001BE0090FECCE04401F090FEB2E0F090FEC974E7
:1001CE0068F090FED7E4F0A3743FF090FECCE044CC
:1001DE0010F090FEB2E0F090FECA7468F090FED976
:1001EE00E4F0A374BFF090FECDE04401F090FEB2B7
:1001FE00E0F090FEDD7480F090FEC004F090FEC73B
:04020E007401F02265
:100487004391C053923F43930F5394F075BC8675C5
:09049700DE2190FEA87434F0226D
:0D008D0043B14053B2BF75E68C75E73C22CD
:1004C8005389FC538E7F758CE0758AC0D28CD2A973
:0104D8002201
:10000E0053D1F0E4F5D4F5D590FEAC04F043AF2017
:04001E0043D10822A0
:1004D90053D10FE4F5D2F5D390FEAC04F043AF400D
:0104E90022F0
:1003B0007EFFE4F5BDF5BEEF44C0F5BC00EE60077E
:1003C0001EE5BC542060F653BCDFAFBEEF2408FF2F
:1003D000AEBDEE7E00A807088005CEC313CE13D8AD
:0203E000F9FF23
:0103E20022F8
:0100220022BB
:1000AE00E52314602F14604614605F14607614709C
:1000BE00030201502405600302016D90FEB1E4F0CD
:1000CE00C291C2950000000004F0D29375BC8A3034
:1000DE000450806890FEB17401F0C291C29300008A
:1000EE000000D29575BC89300402806C806E90FE43
:1000FE00B1E4F0C291C293000000007404F0D295F6
:10010E0075BC883004028034805290FEB17404F0C5
:10011E00C293C29500000000D29175BC8A300402D1
:10012E008036803890FEB1E4F0C293C29500000094
:10013E00007410F0D29175BC8930040475E69C22CF
:10014E00801A90FEB17410F0C291C29500000000AA
:10015E00D29375BC8830040475E6AC2275E68C2209
:1004B60075985075D7CC75D6FF758E15E4F524C2A0
:0204C60003220F
:080003002003FDD2038F9922B6
:100440008B148A158916AB14AA15A916120212600C
:10045000130516E5167002051514F9120212FF12A3
:05046000000380E22210
:0402B6008E0A8F0B12
:1002BA00E4FBC3E50A6480948050107F2D1200038A
:1002CA00C3E4950BF50BE4950AF50AE50B450A60BC
:1002DA0029AE0AAF0B7C007D0A12022BAA05EA247A
:1002EA0030FF740C2BF8A607AE0AAF0B7C007D0A10
:1002FA0012022B8E0A8F0B0B80D17B007A00790CAD
:03030A00020440AA
:0300AB000200262A
:10002600C0E0C0F0C0D075D000C000C004C005C09C
:0300360006C007FA
:10003900E5E675F0BF8485F0E6E521703653D1F722
:10004900300108C2017E1F7FFF8013AFD4EFFEADE0
:10005900D57C00E42DFFEC3EC313FEEF13FF75D4EE
:100069000075D50043D108E52225E02425F8A60628
:0300790008A607CF
:10007C00D007D006D005D004D000D0D0D0F0D0E03E
:01008C003241
:03000B0002009E52
:03009E00D200325B
:03009B000200A6BA
:0300A600D2013252
:0300A30002030D48
:10030D00C0E0C083C082C0D075D000C006C0075306
:10031D00D17FAF217E00EF6401702475210230047E
:10032D00130523C3E523940674809480400375233D
:10033D00001200AE75D2FF75D3B043D1808008EFA7
:10034D0064024E7002F521D007D006D0D0D082D0F5
:04035D0083D0E03237
:10021200BB010689828A83E0225002E722BBFE02EA
:09022200E32289828A83E493221D
:10022B00C2D5EC30E709B2D5E4C39DFDE49CFCEEEE
:10023B0030E715B2D5E4C39FFFE49EFE120261C303
:10024B00E49DFDE49CFC800312026130D507C3E4FE
:06025B009FFFE49EFE225D
:10026100BC000BBE0029EF8DF084FFADF022E4CC81
:10027100F875F008EF2FFFEE33FEEC33FCEE9DEC4A
:10028100984005FCEE9DFE0FD5F0E9E4CEFD22ED90
:10029100F8F5F0EE8420D21CFEADF075F008EF2FDA
:1002A100FFED33FD4007985006D5F0F222C398FDCB
:0502B1000FD5F0EA2268
:00000001FF
