:0300000002009D5E
:0C009D00787FE4F6D8FD7581530200DE88
:10043700C290C291C292C293C294C29543923F5353
:1004470091C090FED0E4F0A37403F090FEDE741820
:10045700F090FED2E4F0A374FFF090FECCE4F0A39A
:10046700F090FEC5F0A3F090FEB1F0A3F090FEC4AB
:10047700F090FEC87468F090FED5E4F0A3F090FE0B
:10048700CCE04401F090FEB2E0F090FEC97468F051
:1004970090FED7E4F0A3F090FECCE04410F090FE7D
:1004A700B2E0F090FECA7468F090FED9E4F0A3F0D1
:1004B70090FECDE04401F090FEB2E0F090FEDD74D6
:0E04C70080F090FEC004F090FEC77401F02299
:100653004395085396F790FE12E04408F090FEEDA0
:10066300E4F090FEB5E054BFF090FEF0E4F0A3F0A8
:1006730090FEFEF090FEB6E0543FF090FEEA743236
:10068300F0A314F090FEED7411F0E0F0E04420F0DC
:0E06930090FEE4E04410F090FEE07401F022CE
:0300DB000205A873
:1005A800C0E0C0F0C083C082C0D075D000C000C019
:1005B80004C005C006C00790FEE5E030E424E0541E
:1005C800EFF0D20490FEF9E0FEA3E0FFA3E0FCA365
:1005D800E0C39FFFEC9EFE7C007D181205408E5202
:1005E8008F53D007D006D005D004D000D0D0D08209
:0705F800D083D0F0D0E03207
:100084004391C053923F43930F5394F075BC8675CC
:09009400DE2190FEA87434F02274
:0F06A1007D607C09ED1D70011C144C70F7DFF1BA
:0106B0002227
:070066007FE112006D7FE154
:10006D000000000000000000000000000000000083
:07007D0000000000DFEA2291
:10037700E53D14602F14604614605F1460761470B6
:10038700030204192405600302043690FEB1E4F069
:10039700C291C2950000000004F0D29375BC8A3068
:1003A7000350806890FEB17401F0C291C2930000BF
:1003B7000000D29575BC89300302806C806E90FE78
:1003C700B1E4F0C291C293000000007404F0D2952A
:1003D70075BC883003028034805290FEB17404F0FB
:1003E700C293C29500000000D29175BC8A30030207
:1003F7008036803890FEB1E4F0C293C295000000C9
:10040700007410F0D29175BC8930030475E69C2204
:10041700801A90FEB17410F0C291C29500000000DE
:10042700D29375BC8830030475E6AC2275E68C223E
:1004D50075E68C75412890FED6E541F090FED8F082
:1004E50090FEDAF0E4F53D1203777F321206A17D26
:1004F500C87C00E4FBFAC3EB9DEA9C500C7F6412B8
:10050500006D0BBB00010A80EDECC4F854F0C8681F
:10051500FEEDC4540F48FFC3ED9FFDEC9EFC053D69
:10052500C3E53D9406748094804003E4F53D1203D1
:0A05350077C3ED9428EC940050B950
:01053F002299
:1000C4005389FC538E7F758CE0758AC0D28CD2A97B
:0100D4002209
:10004F005389CF438910538EBFE4F58DF58BD28E34
:03005F00D2AB22FF
:0F06B100538E7F538ECFE4F5D6F5D743AF042297
:03000B00020003ED
:03000300D20032F6
:03001B00020006DA
:03000600D20132F2
:030063000205FF94
:1005FF00C0E0C083C082C0D075D000C006C0075312
:10060F008EEFAF257E00EF64017024752502300355
:10061F0013053DC3E53D9406748094804003753DFA
:10062F000012037775D6FF75D7B0438E108008EF91
:10063F0064024E7002F525D007D006D0D0D082D0FC
:04064F0083D0E03242
:0D000E0043B14053B2BF75E68C75E73C224C
:0300AB00020291BD
:10029100C0E0C0D075D000C000C002C004C005C01D
:0302A10006C0078D
:1002A40053E6BFE5256003020366C28E300108C22F
:1002B400017C1F7DFF8013AF8DEFFEAD8B7C00E4CE
:1002C4002DFFEC3EC313FCEF13FD758D00758B0001
:1002D400D28EE53825E02442F8A60408A6050538A0
:1002E400C3E53894087480948040037538007C001A
:1002F4007D00E4FFEFC39408748094805012EF25CE
:10030400E02442F8E6FA08E62DFDEA3CFC0F80E41E
:10031400ECC4F854F0C868FCEDC4540F48FDD39401
:1003240028EC9400400BED94E8EC94035003752200
:100334007DD3ED9428EC9400400A74D82DFD74FF0D
:100344003CFC80047C007D14538EEFED25E0FDEC35
:1003540033FCC3E49DFDE49CF5D68DD7438E107524
:02036400250171
:10036600D007D006D005D004D002D000D0D0D0E03F
:010376003254
:10001E00AD07AC06D295ED1DAE0470011C4E601AF4
:10002E00D2907F3212006DC290120066D2927F3251
:10003E0012006DC29212006680DCC295C290C2920E
:01004E00228F
:1000DE0043BA801200AE12043712008412000E12C0
:1000EE0000C412004F1206B1120653E4F521F54179
:1000FE00F5227FFA1206A17FF47E0112001E7FFA0E
:10010E001206A1D2AF3000FDC200E522602A1522F0
:10011E00E5227024C203F54175E68C90FEB1F09095
:10012E00FED5F0A3F0A3F0A3F0A3F0A3F0C291C20A
:10013E0093C2957FFA1206A1200352C3E52194289B
:10014E00748094804047D202E4F508C3E508940811
:10015E00748094805010E50825E02442F87601085A
:10016E007690050880E51204D5C202E4F52553E623
:10017E00BFE53D30E00575E6AC800375E69CD20325
:10018E007FFA1206A17FFA1206A175227D30033D79
:10019E00E541C3952150020541E541D39521400229
:1001AE001541C3E5419423748094805012C203E438
:1001BE00F54175E68C90FEB1F0C291C293C2959056
:1001CE00FED6E541F090FED8F090FEDAF0E5092576
:1001DE00E02428F8A65208A6530509530907E4F5AA
:1001EE000DF50CF50BF50AF508C3E50894087480B7
:1001FE0094805027E50825E02428F8E6FE08E6FF5F
:10020E00E4FCFDE50D2FF50DE50C3EF50CED350B83
:10021E00F50BEC350AF50A050880CEAF0DAE0CAD28
:10022E000BAC0A78031205958E268F27C3E527940B
:10023E004CE52694045006752119020113D3E527C7
:10024E00946CE526940740067521E6020113C3E57A
:10025E0027944CE52694045003020113D3E527940A
:10026E006CE52694074003020113E5272418FFE5E9
:10027E002634FCFEEF7802CEC313CE13D8F9F52147
:03028E0002011357
:1000AE00E4F594F593F592F591F596F595F5B2F58F
:0600BE00B1F5CAF5CA22EB
:10054000BC000BBE0029EF8DF084FFADF022E4CC9F
:10055000F875F008EF2FFFEE33FEEC33FCEE9DEC68
:10056000984005FCEE9DFE0FD5F0E9E4CEFD22EDAE
:10057000F8F5F0EE8420D21CFEADF075F008EF2FF8
:10058000FFED33FD4007985006D5F0F222C398FDE9
:050590000FD5F0EA2286
:10059500E8600FECC313FCED13FDEE13FEEF13FF44
:0305A500D8F12268
:00000001FF
