:030000000209C032
:0C09C000787FE4F6D8FD7581200208A4C1
:100959002D2D42727573686C65737320455343205E
:09096900546573742D2D0D0A0074
:030023000208D7F9
:1008D700C0E0C0D075D000C000C007309904C299ED
:1008E700C200309814C298AF08050874092FF8A6FB
:1008F70099E599B40A03430880D007D000D0D0D037
:02090700E032DC
:05090900E50830E725C0
:10090E00547FF5197B007A007909120934E4F51A3F
:10091E00E51AC39519500B7409251AF8E4F6051A51
:05092E0080EEE4F50875
:0109330022A1
:1008A40043BA8012098B1208001209B31209D41238
:1008B40009D51209D61209D71209A1D2ACD2AF7B3D
:1008C400FF7A09795912093490FEB17415F01209AE
:0308D4000980FB9D
:10098B00E4F594F593F592F591F596F595F5B2F5A9
:06099B00B1F5CAF5CA2205
:10080000C290C291C292C293C294C29543923F5386
:1008100091C090FED0E4F0A37403F090FEDE741853
:10082000F090FED2E4F0A374FFF090FECCE4F0A3CD
:10083000F090FEC5F0A3F090FEB1F0A3F090FEC4DE
:10084000F090FEC87468F090FED5E4F0A3747FF0D9
:1008500090FECCE04405F090FEB2E0F090FEC9744A
:1008600068F090FED7E4F0A3743FF090FECCE04433
:1008700050F090FEB2E0F090FECA7468F090FED99D
:10088000E4F0A374BFF090FECDE04405F090FEB21A
:10089000E0F090FEDD7480F090FEC004F090FEC7A2
:0408A0007401F022CD
:0D09B3004391C053923F43930F5394F022A1
:0109D4002200
:0109D50022FF
:0109D60022FE
:0109D70022FD
:1009A10075985075D7CC75D6FF758E15E4F508C2CC
:0209B100002222
:0809CC002000FDD2008F9922EA
:100934008B1B8A1C891DAB1BAA1CA91D1209726082
:1009440013051DE51D7002051C14F9120972FF122E
:0509540009CC80E22245
:10097200BB010689828A83E0225002E722BBFE0283
:09098200E32289828A83E49322B6
:00000001FF
