:03000000020F3CB0
:0C0F3C00787FE4F6D8FD75817302080090
:100E3C002D2D42727573686C657373204553432076
:100E4C00546573742D2D0D0A006F7665720D0A00B2
:090E5C00656E61626C650D0A000F
:03002300020E0AC0
:100E0A00C0E0C0D075D000C000C007309904C299B4
:100E1A00C203309814C298AF50055074642FF8A6D4
:100E2A0099E599B40A03435080D007D000D0D0D0B6
:020E3A00E032A4
:100EFB0075985075D7CC75D6FF758E15E4F550C225
:020F0B000322BF
:080F48002003FDD2038F992262
:100E65008B118A128913AB11AA12A913120C2560D2
:100E7500130513E5137002051214F9120C25FF1260
:050E85000F4880E2228D
:100B8700C290C291C292C293C294C29543923F53FC
:100B970091C090FED0E4F0A37403F090FEDE7418C9
:100BA700F090FED2E4F0A374FFF090FECCE4F0A343
:100BB700F090FEC5F0A3F090FEB1F0A3F090FEC454
:100BC700F090FEC87468F090FED5E4F0A3F090FEB4
:100BD700CCE04401F090FEB2E0F090FEC97468F0FA
:100BE70090FED7E4F0A3F090FECCE04410F090FE26
:100BF700B2E0F090FECA7468F090FED9E4F0A3F07A
:100C070090FECDE04401F090FEB2E0F090FEDD747E
:0E0C170080F090FEC004F090FEC77401F02241
:100DBC004395085396F790FE12E04408F090FEED30
:100DCC00E4F090FEB5E054BFF090FEF0E4F0A3F038
:100DDC0090FEFEF090FEB6E0543FF090FEEA7432C6
:100DEC00F0A314F090FEED7411F0E0F0E04420F06C
:0E0DFC0090FEE4E04410F090FEE07401F0225E
:0300DB00020D1102
:100D1100C0E0C0F0C083C082C0D075D000C000C0A8
:100D210004C005C006C00790FEE5E030E424E054AD
:100D3100EFF0D20590FEF9E0FEA3E0FFA3E0FCA3F3
:100D4100E0C39FFFEC9EFE7C007D18120C3E8E627C
:100D51008F63D007D006D005D004D000D0D0D08288
:070D6100D083D0F0D0E03296
:100E8A004391C053923F43930F5394F075BC8675B8
:090E9A00DE2190FEA87434F02260
:070EA3007FFA120EAA7FFA8C
:0F0EAA007D607C09ED1D70011C144C70F7DFF1A9
:010EB9002216
:100EBA000000000000000000000000000000000028
:070ECA0000000000DFEA2236
:100AC700E54D14602F14604614605F14607614704F
:100AD70003020B6924056003020B8690FEB1E4F064
:100AE700C291C2950000000004F0D29375BC8A3011
:100AF7000450806890FEB17401F0C291C293000067
:100B07000000D29575BC89300402806C806E90FE1F
:100B1700B1E4F0C291C293000000007404F0D295D2
:100B270075BC883004028034805290FEB17404F0A2
:100B3700C293C29500000000D29175BC8A300402AE
:100B47008036803890FEB1E4F0C293C29500000071
:100B5700007410F0D29175BC8930040475E69C22AC
:100B6700801A90FEB17410F0C291C2950000000087
:100B7700D29375BC8830040475E6AC2275E68C22E6
:100CA60075E68C75512890FED6E551F090FED8F089
:100CB60090FEDAF0E4F54D120AC77F32120EAA7DD5
:100CC600C87C00E4FBFAC3EB9DEA9C500C7F6412DF
:100CD6000EBA0BBB00010A80EDECC4F854F0C868EC
:100CE600FEEDC4540F48FFC3ED9FFDEC9EFC054D81
:100CF600C3E54D9406748094804003E4F54D120AD2
:0A0D0600C7C3ED9428EC940050B927
:010D100022C0
:100F0D005389FC538E7F758CE0758AC0D28CD2A923
:010F1D0022B1
:100EE70053D1F0E4F5D4F5D590FEAC04F043AF2030
:040EF70043D10822B9
:100F1E0053D10FE4F5D2F5D390FEAC04F043AF40BD
:010F2E0022A0
:03000B00020F5091
:030F5000D200329A
:03009B00020F53FE
:030F5300D2013296
:0300A300020D68E3
:100D6800C0E0C083C082C0D075D000C006C00753A1
:100D7800D17FAF257E00EF64017024752502300411
:100D880013054DC3E54D9406748094804003754D5A
:100D980000120AC775D2FF75D3B043D1808008EF1F
:100DA80064024E7002F525D007D006D0D0D082D08C
:040DB80083D0E032D2
:0D0F2F0043B14053B2BF75E68C75E73C221C
:0300AB000209DF68
:1009DF00C0E0C0D075D000C000C002C004C005C0C8
:0309EF0006C00738
:1009F20053E6BFE5256003020AB653D1F73001087A
:100A0200C2017C1F7DFF8013AFD4EFFEADD57C0009
:100A1200E42DFFEC3EC313FCEF13FD75D40075D536
:100A22000043D108E54825E02452F8A60408A605AB
:100A32000548C3E5489408748094804003754800D3
:100A42007C007D00E4FFEFC3940874809480501210
:100A5200EF25E02452F8E6FA08E62DFDEA3CFC0F09
:100A620080E4ECC4F854F0C868FCEDC4540F48FDAF
:100A7200D39428EC9400400BED94E8EC94035003DB
:100A820075227DD3ED9428EC9400400A74D82DFD94
:100A920074FF3CFC80047C007D1453D17FED25E083
:100AA200FDEC33FCC3E49DFDE49CF5D28DD343D130
:040AB2008075250125
:100AB600D007D006D005D004D002D000D0D0D0E0E8
:010AC60032FD
:1008000043BA80120ED1120B87120E8A120F2F12CA
:100810000F0D120EE7120F1E120DBC120EFBD2AC02
:10082000E4F521F551F522120EA3D2AF7BFF7A0E2B
:10083000793C120E653000FDC200E522602A1522C7
:10084000E5227024C204F55175E68C90FEB1F0905B
:10085000FED5F0A3F0A3F0A3F0A3F0A3F0C291C2E1
:1008600093C2957FFA120EAA20044BC3E521942867
:10087000748094804040D202E4F508C3E5089408EF
:10088000748094805010E50825E02452F876010821
:100890007690050880E5120CA6C202E4F52553E621
:1008A000BFE54D30E00575E6AC800375E69CD204EB
:1008B000120EA375227D30043DE551C395215002EF
:1008C0000551E551D3952140021551C3E5519423BB
:1008D000748094805012C204E4F55175E68C90FE49
:1008E000B1F0C291C293C29590FED6E551F090FE50
:1008F000D8F090FEDAF0E50925E02428F8A6620891
:10090000A663050953090FE4F50DF50CF50BF50A7F
:10091000F508C3E5089410748094805027E50825F5
:10092000E02428F8E6FE08E6FFE4FCFDE50D2FF5DF
:100930000DE50C3EF50CED350BF50BEC350AF50A23
:10094000050880CEAF0DAE0CAD0BAC0A7804120CCE
:10095000938E268F27C3E527944CE52694045005F3
:10096000752119804ED3E527946CE5269407400E37
:100970007BFF7A0E7955120E657521E68035C3E549
:1009800027944CE5269404402AD3E527946CE52669
:100990009407501F7BFF7A0E795C120E65E52724C1
:1009A00018FFE52634FCFEEF7802CEC313CE13D831
:0909B000F9F521200503020835C8
:1009B900C2057FFF120F4885260F852710E50FF521
:1009C9000EAF0E120F4885100EAF0E120F487FFFA3
:0309D900120F48B2
:0309DC00020835D9
:100ED100E4F594F593F592F591F596F595F5B2F55E
:060EE100B1F5CAF5CA22BA
:100C2500BB010689828A83E0225002E722BBFE02CD
:090C3500E32289828A83E4932200
:100C3E00BC000BBE0029EF8DF084FFADF022E4CC9A
:100C4E00F875F008EF2FFFEE33FEEC33FCEE9DEC63
:100C5E00984005FCEE9DFE0FD5F0E9E4CEFD22EDA9
:100C6E00F8F5F0EE8420D21CFEADF075F008EF2FF3
:100C7E00FFED33FD4007985006D5F0F222C398FDE4
:050C8E000FD5F0EA2281
:100C9300E8600FECC313FCED13FDEE13FEEF13FF3F
:030CA300D8F12263
:00000001FF
